{
  "fileName": "Crowdsale.sol",
  "contractName": "Crowdsale",
  "source": "// SPDX-License-Identifier: Unlicense\npragma solidity >=0.6.0 <0.8.0;\n\nimport \"@openzeppelin/contracts-upgradeable/token/ERC20/IERC20Upgradeable.sol\";\nimport \"@openzeppelin/contracts-upgradeable/utils/ContextUpgradeable.sol\";\nimport \"@openzeppelin/contracts-upgradeable/utils/PausableUpgradeable.sol\";\nimport \"@openzeppelin/contracts-upgradeable/access/OwnableUpgradeable.sol\";\nimport \"@openzeppelin/contracts-upgradeable/math/SafeMathUpgradeable.sol\";\nimport \"@chainlink/contracts/src/v0.6/interfaces/AggregatorV3Interface.sol\";\n\nimport \"./STOToken.sol\";\n\ncontract Crowdsale is OwnableUpgradeable, PausableUpgradeable {\n  using SafeMathUpgradeable for uint256;\n\n  uint256 private _decimals = 18; // ETH decimals\n\n  AggregatorV3Interface private _ethUsdFeed;\n  AggregatorV3Interface private _eurUsdFeed;\n  bool internal _feedsLoaded = false;\n\n  struct TokenInfo {\n      address tokenAddress;\n      uint256 price; // EUR\n  }\n\n  mapping(string => TokenInfo) private _availableTokens;\n\n  event EnabledToken(string tokenName, address indexed tokenAddress, uint32 price);\n  event Contribution(string tokenName, address indexed holderAddress, uint256 eth, uint256 tokens);\n  event Destroyed();\n\n  function initialize() public {\n    __Crowdsale_init();\n  }\n\n  function __Crowdsale_init() internal initializer {\n    __Context_init_unchained();\n    __Ownable_init();\n  }\n\n  function updateFeeds(address addressEurUsd, address addressEthUsd) public onlyOwner {\n    _eurUsdFeed = AggregatorV3Interface(addressEurUsd);\n    _ethUsdFeed = AggregatorV3Interface(addressEthUsd);\n    _feedsLoaded = true;\n  }\n\n  function pause() public onlyOwner{\n    _pause();\n  }\n\n  function unpause() public onlyOwner{\n    _unpause();\n  }\n\n  function contribution(string memory tokenName) public payable whenNotPaused returns (uint256) {\n    uint256 tokens = getTokensByContribution(msg.value, tokenName);\n    require(tokens > 1 * uint256(10**uint256(_decimals)), \"Must buy from 1\");\n    TokenInfo memory tokenInfo = _availableTokens[tokenName];\n    STOToken token = STOToken(tokenInfo.tokenAddress);\n    token.mint(_msgSender(), tokens);\n    require(payable(owner()).send(msg.value), \"Crowdsale: Funds NOT transfered\");\n    emit Contribution(tokenName, _msgSender(), msg.value, tokens);\n    return tokens;\n  }\n\n  function getRates() public view returns(uint256 ethRate, uint256 eurRate) {\n    (,int256 ethAnswer,,,) = _ethUsdFeed.latestRoundData();\n    (,int256 eurAnswer,,,) = _eurUsdFeed.latestRoundData();\n\n    uint8 ethDecimals = _ethUsdFeed.decimals();\n    uint8 eurDecimals = _eurUsdFeed.decimals();\n\n    uint256 divEth = uint256(10**uint256(_decimals - ethDecimals));\n    uint256 divEur = uint256(10**uint256(_decimals - eurDecimals));\n\n    // Rate with 18 decimals\n    ethRate = uint256(ethAnswer).mul(divEth);\n    eurRate = uint256(eurAnswer).mul(divEur);\n  }\n\n  function getTokensByContribution(uint amount, string memory tokenName) public view returns (uint256) {\n    require(_feedsLoaded, \"Crowdsale: feeds NOT linked\");\n    require(_availableTokens[tokenName].tokenAddress != address(0), \"Crowdsale: project NOT exists\");\n    uint256 priceTokenEur = _availableTokens[tokenName].price;\n    (uint256 ethRate, uint256 eurRate) = getRates();\n    uint256 safeDecimals = uint256(10**8);\n    uint256 numTokensProject = uint256(amount.mul(safeDecimals)).div(uint256(priceTokenEur).mul(eurRate.mul(safeDecimals)).div(ethRate));\n    return numTokensProject;\n  }\n\n  function isEnabledToken(string memory tokenName) public view returns (bool) {\n    return _availableTokens[tokenName].tokenAddress != address(0);\n  }\n\n  function getTokenAddress(string memory tokenName) public view returns (address) {\n    require(_availableTokens[tokenName].tokenAddress != address(0), \"Crowdsale: project NOT exists\");\n    return _availableTokens[tokenName].tokenAddress;\n  }\n\n  function enableToken(string memory tokenName, address tokenAddress, uint32 price) public onlyOwner {\n    require(tokenAddress != address(0), \"Crowdsale: token address is the zero address\");\n    bool canMint = STOToken(tokenAddress).hasRole(keccak256(\"MINTER_ROLE\"), address(this));\n    require(canMint, \"Crowdsale: crowdsale address NOT has MINTER_ROLE on token\");\n    _availableTokens[tokenName] = TokenInfo({\n        tokenAddress: tokenAddress,\n        price: price\n    });\n    emit EnabledToken(tokenName, tokenAddress, price);\n  }\n\n  function destroy() public onlyOwner {\n    emit Destroyed();\n    selfdestruct(payable(owner()));\n  }\n}\n",
  "sourcePath": "contracts/Crowdsale.sol",
  "abi": [
    {
      "anonymous": false,
      "inputs": [
        {
          "indexed": false,
          "internalType": "string",
          "name": "tokenName",
          "type": "string"
        },
        {
          "indexed": true,
          "internalType": "address",
          "name": "holderAddress",
          "type": "address"
        },
        {
          "indexed": false,
          "internalType": "uint256",
          "name": "eth",
          "type": "uint256"
        },
        {
          "indexed": false,
          "internalType": "uint256",
          "name": "tokens",
          "type": "uint256"
        }
      ],
      "name": "Contribution",
      "type": "event"
    },
    {
      "anonymous": false,
      "inputs": [],
      "name": "Destroyed",
      "type": "event"
    },
    {
      "anonymous": false,
      "inputs": [
        {
          "indexed": false,
          "internalType": "string",
          "name": "tokenName",
          "type": "string"
        },
        {
          "indexed": true,
          "internalType": "address",
          "name": "tokenAddress",
          "type": "address"
        },
        {
          "indexed": false,
          "internalType": "uint32",
          "name": "price",
          "type": "uint32"
        }
      ],
      "name": "EnabledToken",
      "type": "event"
    },
    {
      "anonymous": false,
      "inputs": [
        {
          "indexed": true,
          "internalType": "address",
          "name": "previousOwner",
          "type": "address"
        },
        {
          "indexed": true,
          "internalType": "address",
          "name": "newOwner",
          "type": "address"
        }
      ],
      "name": "OwnershipTransferred",
      "type": "event"
    },
    {
      "anonymous": false,
      "inputs": [
        {
          "indexed": false,
          "internalType": "address",
          "name": "account",
          "type": "address"
        }
      ],
      "name": "Paused",
      "type": "event"
    },
    {
      "anonymous": false,
      "inputs": [
        {
          "indexed": false,
          "internalType": "address",
          "name": "account",
          "type": "address"
        }
      ],
      "name": "Unpaused",
      "type": "event"
    },
    {
      "inputs": [
        {
          "internalType": "string",
          "name": "tokenName",
          "type": "string"
        }
      ],
      "name": "contribution",
      "outputs": [
        {
          "internalType": "uint256",
          "name": "",
          "type": "uint256"
        }
      ],
      "stateMutability": "payable",
      "type": "function"
    },
    {
      "inputs": [],
      "name": "destroy",
      "outputs": [],
      "stateMutability": "nonpayable",
      "type": "function"
    },
    {
      "inputs": [
        {
          "internalType": "string",
          "name": "tokenName",
          "type": "string"
        },
        {
          "internalType": "address",
          "name": "tokenAddress",
          "type": "address"
        },
        {
          "internalType": "uint32",
          "name": "price",
          "type": "uint32"
        }
      ],
      "name": "enableToken",
      "outputs": [],
      "stateMutability": "nonpayable",
      "type": "function"
    },
    {
      "inputs": [],
      "name": "getRates",
      "outputs": [
        {
          "internalType": "uint256",
          "name": "ethRate",
          "type": "uint256"
        },
        {
          "internalType": "uint256",
          "name": "eurRate",
          "type": "uint256"
        }
      ],
      "stateMutability": "view",
      "type": "function"
    },
    {
      "inputs": [
        {
          "internalType": "string",
          "name": "tokenName",
          "type": "string"
        }
      ],
      "name": "getTokenAddress",
      "outputs": [
        {
          "internalType": "address",
          "name": "",
          "type": "address"
        }
      ],
      "stateMutability": "view",
      "type": "function"
    },
    {
      "inputs": [
        {
          "internalType": "uint256",
          "name": "amount",
          "type": "uint256"
        },
        {
          "internalType": "string",
          "name": "tokenName",
          "type": "string"
        }
      ],
      "name": "getTokensByContribution",
      "outputs": [
        {
          "internalType": "uint256",
          "name": "",
          "type": "uint256"
        }
      ],
      "stateMutability": "view",
      "type": "function"
    },
    {
      "inputs": [],
      "name": "initialize",
      "outputs": [],
      "stateMutability": "nonpayable",
      "type": "function"
    },
    {
      "inputs": [
        {
          "internalType": "string",
          "name": "tokenName",
          "type": "string"
        }
      ],
      "name": "isEnabledToken",
      "outputs": [
        {
          "internalType": "bool",
          "name": "",
          "type": "bool"
        }
      ],
      "stateMutability": "view",
      "type": "function"
    },
    {
      "inputs": [],
      "name": "owner",
      "outputs": [
        {
          "internalType": "address",
          "name": "",
          "type": "address"
        }
      ],
      "stateMutability": "view",
      "type": "function"
    },
    {
      "inputs": [],
      "name": "pause",
      "outputs": [],
      "stateMutability": "nonpayable",
      "type": "function"
    },
    {
      "inputs": [],
      "name": "paused",
      "outputs": [
        {
          "internalType": "bool",
          "name": "",
          "type": "bool"
        }
      ],
      "stateMutability": "view",
      "type": "function"
    },
    {
      "inputs": [],
      "name": "renounceOwnership",
      "outputs": [],
      "stateMutability": "nonpayable",
      "type": "function"
    },
    {
      "inputs": [
        {
          "internalType": "address",
          "name": "newOwner",
          "type": "address"
        }
      ],
      "name": "transferOwnership",
      "outputs": [],
      "stateMutability": "nonpayable",
      "type": "function"
    },
    {
      "inputs": [],
      "name": "unpause",
      "outputs": [],
      "stateMutability": "nonpayable",
      "type": "function"
    },
    {
      "inputs": [
        {
          "internalType": "address",
          "name": "addressEurUsd",
          "type": "address"
        },
        {
          "internalType": "address",
          "name": "addressEthUsd",
          "type": "address"
        }
      ],
      "name": "updateFeeds",
      "outputs": [],
      "stateMutability": "nonpayable",
      "type": "function"
    }
  ],
  "bytecode": "0x608060405260126097556000609960146101000a81548160ff02191690831515021790555034801561003057600080fd5b5061284a806100406000396000f3fe6080604052600436106100e85760003560e01c80638473627d1161008a5780639accab55116100595780639accab55146104d2578063b422795714610504578063c4091236146105fc578063f2fde38b146106ee576100e8565b80638473627d1461026b5780638da5cb5b146102dc5780639403585c1461031d57806397492c7a14610403576100e8565b80638129fc1c116100c65780638129fc1c1461014857806383197ef01461015f57806383d7f85d146101765780638456cb5914610254576100e8565b80633f4ba83a146100ed5780635c975abb14610104578063715018a614610131575b600080fd5b3480156100f957600080fd5b5061010261073f565b005b34801561011057600080fd5b506101196107f8565b60405180821515815260200191505060405180910390f35b34801561013d57600080fd5b5061014661080f565b005b34801561015457600080fd5b5061015d61097f565b005b34801561016b57600080fd5b50610174610989565b005b34801561018257600080fd5b5061023c6004803603602081101561019957600080fd5b81019080803590602001906401000000008111156101b657600080fd5b8201836020820111156101c857600080fd5b803590602001918460018302840111640100000000831117156101ea57600080fd5b91908080601f016020809104026020016040519081016040528093929190818152602001838380828437600081840152601f19601f820116905080830192505050505050509192919290505050610a84565b60405180821515815260200191505060405180910390f35b34801561026057600080fd5b50610269610b49565b005b34801561027757600080fd5b506102da6004803603604081101561028e57600080fd5b81019080803573ffffffffffffffffffffffffffffffffffffffff169060200190929190803573ffffffffffffffffffffffffffffffffffffffff169060200190929190505050610c02565b005b3480156102e857600080fd5b506102f1610d52565b604051808273ffffffffffffffffffffffffffffffffffffffff16815260200191505060405180910390f35b34801561032957600080fd5b506103ed6004803603604081101561034057600080fd5b81019080803590602001909291908035906020019064010000000081111561036757600080fd5b82018360208201111561037957600080fd5b8035906020019184600183028401116401000000008311171561039b57600080fd5b91908080601f016020809104026020016040519081016040528093929190818152602001838380828437600081840152601f19601f820116905080830192505050505050509192919290505050610d7c565b6040518082815260200191505060405180910390f35b6104bc6004803603602081101561041957600080fd5b810190808035906020019064010000000081111561043657600080fd5b82018360208201111561044857600080fd5b8035906020019184600183028401116401000000008311171561046a57600080fd5b91908080601f016020809104026020016040519081016040528093929190818152602001838380828437600081840152601f19601f820116905080830192505050505050509192919290505050611025565b6040518082815260200191505060405180910390f35b3480156104de57600080fd5b506104e7611427565b604051808381526020018281526020019250505060405180910390f35b34801561051057600080fd5b506105fa6004803603606081101561052757600080fd5b810190808035906020019064010000000081111561054457600080fd5b82018360208201111561055657600080fd5b8035906020019184600183028401116401000000008311171561057857600080fd5b91908080601f016020809104026020016040519081016040528093929190818152602001838380828437600081840152601f19601f820116905080830192505050505050509192919290803573ffffffffffffffffffffffffffffffffffffffff169060200190929190803563ffffffff169060200190929190505050611770565b005b34801561060857600080fd5b506106c26004803603602081101561061f57600080fd5b810190808035906020019064010000000081111561063c57600080fd5b82018360208201111561064e57600080fd5b8035906020019184600183028401116401000000008311171561067057600080fd5b91908080601f016020809104026020016040519081016040528093929190818152602001838380828437600081840152601f19601f820116905080830192505050505050509192919290505050611b7e565b604051808273ffffffffffffffffffffffffffffffffffffffff16815260200191505060405180910390f35b3480156106fa57600080fd5b5061073d6004803603602081101561071157600080fd5b81019080803573ffffffffffffffffffffffffffffffffffffffff169060200190929190505050611d42565b005b610747611f37565b73ffffffffffffffffffffffffffffffffffffffff16610765610d52565b73ffffffffffffffffffffffffffffffffffffffff16146107ee576040517f08c379a00000000000000000000000000000000000000000000000000000000081526004018080602001828103825260208152602001807f4f776e61626c653a2063616c6c6572206973206e6f7420746865206f776e657281525060200191505060405180910390fd5b6107f6611f3f565b565b6000606560009054906101000a900460ff16905090565b610817611f37565b73ffffffffffffffffffffffffffffffffffffffff16610835610d52565b73ffffffffffffffffffffffffffffffffffffffff16146108be576040517f08c379a00000000000000000000000000000000000000000000000000000000081526004018080602001828103825260208152602001807f4f776e61626c653a2063616c6c6572206973206e6f7420746865206f776e657281525060200191505060405180910390fd5b600073ffffffffffffffffffffffffffffffffffffffff16603360009054906101000a900473ffffffffffffffffffffffffffffffffffffffff1673ffffffffffffffffffffffffffffffffffffffff167f8be0079c531659141344cd1fd0a4f28419497f9722a3daafe3b4186f6b6457e060405160405180910390a36000603360006101000a81548173ffffffffffffffffffffffffffffffffffffffff021916908373ffffffffffffffffffffffffffffffffffffffff160217905550565b61098761202a565b565b610991611f37565b73ffffffffffffffffffffffffffffffffffffffff166109af610d52565b73ffffffffffffffffffffffffffffffffffffffff1614610a38576040517f08c379a00000000000000000000000000000000000000000000000000000000081526004018080602001828103825260208152602001807f4f776e61626c653a2063616c6c6572206973206e6f7420746865206f776e657281525060200191505060405180910390fd5b7fcc0e82c1b8fa4695d6ae60217024b293814bde0f381a23cafaa0a1e25973c14b60405160405180910390a1610a6c610d52565b73ffffffffffffffffffffffffffffffffffffffff16ff5b60008073ffffffffffffffffffffffffffffffffffffffff16609a836040518082805190602001908083835b60208310610ad35780518252602082019150602081019050602083039250610ab0565b6001836020036101000a038019825116818451168082178552505050505050905001915050908152602001604051809103902060000160009054906101000a900473ffffffffffffffffffffffffffffffffffffffff1673ffffffffffffffffffffffffffffffffffffffff1614159050919050565b610b51611f37565b73ffffffffffffffffffffffffffffffffffffffff16610b6f610d52565b73ffffffffffffffffffffffffffffffffffffffff1614610bf8576040517f08c379a00000000000000000000000000000000000000000000000000000000081526004018080602001828103825260208152602001807f4f776e61626c653a2063616c6c6572206973206e6f7420746865206f776e657281525060200191505060405180910390fd5b610c00612138565b565b610c0a611f37565b73ffffffffffffffffffffffffffffffffffffffff16610c28610d52565b73ffffffffffffffffffffffffffffffffffffffff1614610cb1576040517f08c379a00000000000000000000000000000000000000000000000000000000081526004018080602001828103825260208152602001807f4f776e61626c653a2063616c6c6572206973206e6f7420746865206f776e657281525060200191505060405180910390fd5b81609960006101000a81548173ffffffffffffffffffffffffffffffffffffffff021916908373ffffffffffffffffffffffffffffffffffffffff16021790555080609860006101000a81548173ffffffffffffffffffffffffffffffffffffffff021916908373ffffffffffffffffffffffffffffffffffffffff1602179055506001609960146101000a81548160ff0219169083151502179055505050565b6000603360009054906101000a900473ffffffffffffffffffffffffffffffffffffffff16905090565b6000609960149054906101000a900460ff16610e00576040517f08c379a000000000000000000000000000000000000000000000000000000000815260040180806020018281038252601b8152602001807f43726f776473616c653a206665656473204e4f54206c696e6b6564000000000081525060200191505060405180910390fd5b600073ffffffffffffffffffffffffffffffffffffffff16609a836040518082805190602001908083835b60208310610e4e5780518252602082019150602081019050602083039250610e2b565b6001836020036101000a038019825116818451168082178552505050505050905001915050908152602001604051809103902060000160009054906101000a900473ffffffffffffffffffffffffffffffffffffffff1673ffffffffffffffffffffffffffffffffffffffff161415610f2f576040517f08c379a000000000000000000000000000000000000000000000000000000000815260040180806020018281038252601d8152602001807f43726f776473616c653a2070726f6a656374204e4f542065786973747300000081525060200191505060405180910390fd5b6000609a836040518082805190602001908083835b60208310610f675780518252602082019150602081019050602083039250610f44565b6001836020036101000a0380198251168184511680821785525050505050509050019150509081526020016040518091039020600101549050600080610fab611427565b9150915060006305f5e10090506000611015610ff485610fe6610fd7868861222490919063ffffffff16565b8961222490919063ffffffff16565b6122aa90919063ffffffff16565b611007848b61222490919063ffffffff16565b6122aa90919063ffffffff16565b9050809550505050505092915050565b600061102f6107f8565b156110a2576040517f08c379a00000000000000000000000000000000000000000000000000000000081526004018080602001828103825260108152602001807f5061757361626c653a207061757365640000000000000000000000000000000081525060200191505060405180910390fd5b60006110ae3484610d7c565b9050609754600a0a600102811161112d576040517f08c379a000000000000000000000000000000000000000000000000000000000815260040180806020018281038252600f8152602001807f4d757374206275792066726f6d2031000000000000000000000000000000000081525060200191505060405180910390fd5b61113561270a565b609a846040518082805190602001908083835b6020831061116b5780518252602082019150602081019050602083039250611148565b6001836020036101000a03801982511681845116808217855250505050505090500191505090815260200160405180910390206040518060400160405290816000820160009054906101000a900473ffffffffffffffffffffffffffffffffffffffff1673ffffffffffffffffffffffffffffffffffffffff1673ffffffffffffffffffffffffffffffffffffffff16815260200160018201548152505090506000816000015190508073ffffffffffffffffffffffffffffffffffffffff166340c10f19611238611f37565b856040518363ffffffff1660e01b8152600401808373ffffffffffffffffffffffffffffffffffffffff16815260200182815260200192505050600060405180830381600087803b15801561128c57600080fd5b505af11580156112a0573d6000803e3d6000fd5b505050506112ac610d52565b73ffffffffffffffffffffffffffffffffffffffff166108fc349081150290604051600060405180830381858888f19350505050611352576040517f08c379a000000000000000000000000000000000000000000000000000000000815260040180806020018281038252601f8152602001807f43726f776473616c653a2046756e6473204e4f54207472616e7366657265640081525060200191505060405180910390fd5b61135a611f37565b73ffffffffffffffffffffffffffffffffffffffff167f427fdedb2964db56b0c12755d0a98ad4f6dd608ce7e55b3f15b6c58ae72101a28634866040518080602001848152602001838152602001828103825285818151815260200191508051906020019080838360005b838110156113e05780820151818401526020810190506113c5565b50505050905090810190601f16801561140d5780820380516001836020036101000a031916815260200191505b5094505050505060405180910390a2829350505050919050565b6000806000609860009054906101000a900473ffffffffffffffffffffffffffffffffffffffff1673ffffffffffffffffffffffffffffffffffffffff1663feaf968c6040518163ffffffff1660e01b815260040160a06040518083038186803b15801561149457600080fd5b505afa1580156114a8573d6000803e3d6000fd5b505050506040513d60a08110156114be57600080fd5b8101908080519060200190929190805190602001909291908051906020019092919080519060200190929190805190602001909291905050505050509150506000609960009054906101000a900473ffffffffffffffffffffffffffffffffffffffff1673ffffffffffffffffffffffffffffffffffffffff1663feaf968c6040518163ffffffff1660e01b815260040160a06040518083038186803b15801561156757600080fd5b505afa15801561157b573d6000803e3d6000fd5b505050506040513d60a081101561159157600080fd5b8101908080519060200190929190805190602001909291908051906020019092919080519060200190929190805190602001909291905050505050509150506000609860009054906101000a900473ffffffffffffffffffffffffffffffffffffffff1673ffffffffffffffffffffffffffffffffffffffff1663313ce5676040518163ffffffff1660e01b815260040160206040518083038186803b15801561163a57600080fd5b505afa15801561164e573d6000803e3d6000fd5b505050506040513d602081101561166457600080fd5b810190808051906020019092919050505090506000609960009054906101000a900473ffffffffffffffffffffffffffffffffffffffff1673ffffffffffffffffffffffffffffffffffffffff1663313ce5676040518163ffffffff1660e01b815260040160206040518083038186803b1580156116e157600080fd5b505afa1580156116f5573d6000803e3d6000fd5b505050506040513d602081101561170b57600080fd5b8101908080519060200190929190505050905060008260ff1660975403600a0a905060008260ff1660975403600a0a905061174f828761222490919063ffffffff16565b9750611764818661222490919063ffffffff16565b96505050505050509091565b611778611f37565b73ffffffffffffffffffffffffffffffffffffffff16611796610d52565b73ffffffffffffffffffffffffffffffffffffffff161461181f576040517f08c379a00000000000000000000000000000000000000000000000000000000081526004018080602001828103825260208152602001807f4f776e61626c653a2063616c6c6572206973206e6f7420746865206f776e657281525060200191505060405180910390fd5b600073ffffffffffffffffffffffffffffffffffffffff168273ffffffffffffffffffffffffffffffffffffffff1614156118a5576040517f08c379a000000000000000000000000000000000000000000000000000000000815260040180806020018281038252602c8152602001806127e9602c913960400191505060405180910390fd5b60008273ffffffffffffffffffffffffffffffffffffffff166391d148547f9f2df0fed2c77648de5860a4cc508cd0818c85b8b8a1ab4ceeef8d981c8956a6306040518363ffffffff1660e01b8152600401808381526020018273ffffffffffffffffffffffffffffffffffffffff1681526020019250505060206040518083038186803b15801561193657600080fd5b505afa15801561194a573d6000803e3d6000fd5b505050506040513d602081101561196057600080fd5b81019080805190602001909291905050509050806119c9576040517f08c379a00000000000000000000000000000000000000000000000000000000081526004018080602001828103825260398152602001806127616039913960400191505060405180910390fd5b60405180604001604052808473ffffffffffffffffffffffffffffffffffffffff1681526020018363ffffffff16815250609a856040518082805190602001908083835b60208310611a305780518252602082019150602081019050602083039250611a0d565b6001836020036101000a038019825116818451168082178552505050505050905001915050908152602001604051809103902060008201518160000160006101000a81548173ffffffffffffffffffffffffffffffffffffffff021916908373ffffffffffffffffffffffffffffffffffffffff160217905550602082015181600101559050508273ffffffffffffffffffffffffffffffffffffffff167f5cefed54f1a9dd09d1528363c7a2b831fd28f7fd3b6aeaf2f90b3050aba86378858460405180806020018363ffffffff168152602001828103825284818151815260200191508051906020019080838360005b83811015611b3d578082015181840152602081019050611b22565b50505050905090810190601f168015611b6a5780820380516001836020036101000a031916815260200191505b50935050505060405180910390a250505050565b60008073ffffffffffffffffffffffffffffffffffffffff16609a836040518082805190602001908083835b60208310611bcd5780518252602082019150602081019050602083039250611baa565b6001836020036101000a038019825116818451168082178552505050505050905001915050908152602001604051809103902060000160009054906101000a900473ffffffffffffffffffffffffffffffffffffffff1673ffffffffffffffffffffffffffffffffffffffff161415611cae576040517f08c379a000000000000000000000000000000000000000000000000000000000815260040180806020018281038252601d8152602001807f43726f776473616c653a2070726f6a656374204e4f542065786973747300000081525060200191505060405180910390fd5b609a826040518082805190602001908083835b60208310611ce45780518252602082019150602081019050602083039250611cc1565b6001836020036101000a038019825116818451168082178552505050505050905001915050908152602001604051809103902060000160009054906101000a900473ffffffffffffffffffffffffffffffffffffffff169050919050565b611d4a611f37565b73ffffffffffffffffffffffffffffffffffffffff16611d68610d52565b73ffffffffffffffffffffffffffffffffffffffff1614611df1576040517f08c379a00000000000000000000000000000000000000000000000000000000081526004018080602001828103825260208152602001807f4f776e61626c653a2063616c6c6572206973206e6f7420746865206f776e657281525060200191505060405180910390fd5b600073ffffffffffffffffffffffffffffffffffffffff168173ffffffffffffffffffffffffffffffffffffffff161415611e77576040517f08c379a000000000000000000000000000000000000000000000000000000000815260040180806020018281038252602681526020018061273b6026913960400191505060405180910390fd5b8073ffffffffffffffffffffffffffffffffffffffff16603360009054906101000a900473ffffffffffffffffffffffffffffffffffffffff1673ffffffffffffffffffffffffffffffffffffffff167f8be0079c531659141344cd1fd0a4f28419497f9722a3daafe3b4186f6b6457e060405160405180910390a380603360006101000a81548173ffffffffffffffffffffffffffffffffffffffff021916908373ffffffffffffffffffffffffffffffffffffffff16021790555050565b600033905090565b611f476107f8565b611fb9576040517f08c379a00000000000000000000000000000000000000000000000000000000081526004018080602001828103825260148152602001807f5061757361626c653a206e6f742070617573656400000000000000000000000081525060200191505060405180910390fd5b6000606560006101000a81548160ff0219169083151502179055507f5db9ee0a495bf2e6ff9c91a7834c1ba4fdd244a5e8aa4e537bd38aeae4b073aa611ffd611f37565b604051808273ffffffffffffffffffffffffffffffffffffffff16815260200191505060405180910390a1565b600060019054906101000a900460ff16806120495750612048612333565b5b8061205f575060008054906101000a900460ff16155b6120b4576040517f08c379a000000000000000000000000000000000000000000000000000000000815260040180806020018281038252602e81526020018061279a602e913960400191505060405180910390fd5b60008060019054906101000a900460ff161590508015612104576001600060016101000a81548160ff02191690831515021790555060016000806101000a81548160ff0219169083151502179055505b61210c612344565b612114612442565b80156121355760008060016101000a81548160ff0219169083151502179055505b50565b6121406107f8565b156121b3576040517f08c379a00000000000000000000000000000000000000000000000000000000081526004018080602001828103825260108152602001807f5061757361626c653a207061757365640000000000000000000000000000000081525060200191505060405180910390fd5b6001606560006101000a81548160ff0219169083151502179055507f62e78cea01bee320cd4e420270b5ea74000d11b0c9f74754ebdbfc544b05a2586121f7611f37565b604051808273ffffffffffffffffffffffffffffffffffffffff16815260200191505060405180910390a1565b60008083141561223757600090506122a4565b600082840290508284828161224857fe5b041461229f576040517f08c379a00000000000000000000000000000000000000000000000000000000081526004018080602001828103825260218152602001806127c86021913960400191505060405180910390fd5b809150505b92915050565b6000808211612321576040517f08c379a000000000000000000000000000000000000000000000000000000000815260040180806020018281038252601a8152602001807f536166654d6174683a206469766973696f6e206279207a65726f00000000000081525060200191505060405180910390fd5b81838161232a57fe5b04905092915050565b600061233e30612550565b15905090565b600060019054906101000a900460ff16806123635750612362612333565b5b80612379575060008054906101000a900460ff16155b6123ce576040517f08c379a000000000000000000000000000000000000000000000000000000000815260040180806020018281038252602e81526020018061279a602e913960400191505060405180910390fd5b60008060019054906101000a900460ff16159050801561241e576001600060016101000a81548160ff02191690831515021790555060016000806101000a81548160ff0219169083151502179055505b801561243f5760008060016101000a81548160ff0219169083151502179055505b50565b600060019054906101000a900460ff16806124615750612460612333565b5b80612477575060008054906101000a900460ff16155b6124cc576040517f08c379a000000000000000000000000000000000000000000000000000000000815260040180806020018281038252602e81526020018061279a602e913960400191505060405180910390fd5b60008060019054906101000a900460ff16159050801561251c576001600060016101000a81548160ff02191690831515021790555060016000806101000a81548160ff0219169083151502179055505b612524612344565b61252c612563565b801561254d5760008060016101000a81548160ff0219169083151502179055505b50565b600080823b905060008111915050919050565b600060019054906101000a900460ff16806125825750612581612333565b5b80612598575060008054906101000a900460ff16155b6125ed576040517f08c379a000000000000000000000000000000000000000000000000000000000815260040180806020018281038252602e81526020018061279a602e913960400191505060405180910390fd5b60008060019054906101000a900460ff16159050801561263d576001600060016101000a81548160ff02191690831515021790555060016000806101000a81548160ff0219169083151502179055505b6000612647611f37565b905080603360006101000a81548173ffffffffffffffffffffffffffffffffffffffff021916908373ffffffffffffffffffffffffffffffffffffffff1602179055508073ffffffffffffffffffffffffffffffffffffffff16600073ffffffffffffffffffffffffffffffffffffffff167f8be0079c531659141344cd1fd0a4f28419497f9722a3daafe3b4186f6b6457e060405160405180910390a35080156127075760008060016101000a81548160ff0219169083151502179055505b50565b6040518060400160405280600073ffffffffffffffffffffffffffffffffffffffff16815260200160008152509056fe4f776e61626c653a206e6577206f776e657220697320746865207a65726f206164647265737343726f776473616c653a2063726f776473616c652061646472657373204e4f5420686173204d494e5445525f524f4c45206f6e20746f6b656e496e697469616c697a61626c653a20636f6e747261637420697320616c726561647920696e697469616c697a6564536166654d6174683a206d756c7469706c69636174696f6e206f766572666c6f7743726f776473616c653a20746f6b656e206164647265737320697320746865207a65726f2061646472657373a2646970667358221220d006388f3378fcaf16903e15521896ee0c303f10d5c45b92a26488813949ac3264736f6c634300060c0033",
  "compiler": {
    "name": "solc",
    "version": "0.6.12+commit.27d51765.Emscripten.clang",
    "optimizer": {
      "enabled": false,
      "runs": 200
    },
    "evmVersion": "petersburg"
  }
}