{
  "fileName": "STOToken.sol",
  "contractName": "STOToken",
  "source": "// Inspired on https://github.com/OpenZeppelin/openzeppelin-contracts-upgradeable/blob/master/contracts/presets/ERC20PresetMinterPauserUpgradeable.sol\n// SPDX-License-Identifier: Unlicense\npragma solidity >=0.6.0 <0.8.0;\n\nimport \"@openzeppelin/contracts-upgradeable/access/AccessControlUpgradeable.sol\";\nimport \"@openzeppelin/contracts-upgradeable/utils/ContextUpgradeable.sol\";\nimport \"@openzeppelin/contracts-upgradeable/token/ERC20/ERC20PausableUpgradeable.sol\";\nimport \"@openzeppelin/contracts-upgradeable/token/ERC20/ERC20CappedUpgradeable.sol\";\n\nimport \"./ERC20Whitelisted.sol\";\n\ncontract STOToken is ContextUpgradeable, AccessControlUpgradeable, ERC20Whitelisted, ERC20CappedUpgradeable, ERC20PausableUpgradeable {\n    bytes32 public constant MINTER_ROLE = keccak256(\"MINTER_ROLE\");\n    bytes32 public constant PAUSER_ROLE = keccak256(\"PAUSER_ROLE\");\n\n    uint256 private _maxPoolPercent;\n    uint256 private _minPoolPercent;\n\n    event SwapTokens(address indexed from, address indexed to, uint256 tokens);\n\n    function initialize(string memory name, string memory symbol, uint256 supply, uint256 minPoolPercent, uint256 maxPoolPercent) public {\n      __STOToken_init(name, symbol, supply, minPoolPercent, maxPoolPercent);\n    }\n\n    function __STOToken_init(string memory name, string memory symbol, uint256 supply, uint256 minPoolPercent, uint256 maxPoolPercent) internal initializer {\n      __Context_init_unchained();\n      __AccessControl_init_unchained();\n      __ERC20_init_unchained(name, symbol);\n      __ERC20Whitelisted_init();\n      __ERC20Capped_init(supply);\n      __Pausable_init_unchained();\n      __ERC20Pausable_init_unchained();\n      __STOToken_init_unchained(minPoolPercent, maxPoolPercent);\n    }\n\n    function __STOToken_init_unchained(uint256 minPoolPercent, uint256 maxPoolPercent) internal initializer {\n      _setupRole(DEFAULT_ADMIN_ROLE, _msgSender());\n      _setupRole(MINTER_ROLE, _msgSender());\n      _setupRole(PAUSER_ROLE, _msgSender());\n      _minPoolPercent = minPoolPercent;\n      _maxPoolPercent = maxPoolPercent;\n    }\n\n    function fullySold() public view returns(bool){\n      uint256 cap = cap();\n\n      if (totalSupply() >= cap.sub(cap.mul(_maxPoolPercent).div(100))) {\n        return true;\n      }\n      return false;\n    }\n\n    function couldReceiveContribution(uint256 tokens) public view returns(bool){\n      uint256 cap = cap();\n      if (cap.sub(cap.mul(_minPoolPercent).div(100)) >= totalSupply().add(tokens)) {\n        return true;\n      }\n      return false;\n    }\n\n    function grantMinterRole(address minterAddress) public onlyOwner {\n      grantRole(MINTER_ROLE, minterAddress);\n    }\n\n    function grantPauserRole(address pauserAddress) public onlyOwner {\n      grantRole(PAUSER_ROLE, pauserAddress);\n    }\n\n    function getPoolTokens() public onlyOwner {\n      _mint(_msgSender(), cap().sub(totalSupply()));\n    }\n\n    function getPoolTokensByAmount(uint256 amount) public onlyOwner {\n      require(cap().sub(totalSupply()) >= amount, \"STOToken: not enough funds\");\n      _mint(_msgSender(), amount);\n    }\n\n    function swapTokens(address _from, address _to) public onlyOwner {\n      require(_from != address(0), \"STOToken: _from address is the zero address\");\n      require(_to != address(0), \"STOToken: _from address is the zero address\");\n      require(balanceOf(_from) > 0, \"STOToken: no tokens to transfer\");\n\n      uint256 fromBalance = balanceOf(_from);\n      _transfer(_from, _to, fromBalance);\n\n      emit SwapTokens(_from, _to, fromBalance);\n    }\n\n    function mint(address to, uint256 amount) public {\n      require(hasRole(MINTER_ROLE, _msgSender()), \"STOToken: must have minter role to mint\");\n      require(!fullySold(), \"STOToken: Token fully sold\");\n      require(couldReceiveContribution(amount), \"STOToken: tokens reserved for pool\");\n      _mint(to, amount);\n    }\n\n    function pause() public {\n      require(hasRole(PAUSER_ROLE, _msgSender()), \"STOToken: must have pauser role to pause\");\n      _pause();\n    }\n\n    function unpause() public {\n      require(hasRole(PAUSER_ROLE, _msgSender()), \"STOToken: must have pauser role to unpause\");\n      _unpause();\n    }\n\n    function _beforeTokenTransfer(address from, address to, uint256 amount) internal override(ERC20Whitelisted, ERC20CappedUpgradeable, ERC20PausableUpgradeable) {\n      super._beforeTokenTransfer(from, to, amount);\n    }\n\n    uint256[50] private __gap;\n}\n",
  "sourcePath": "contracts/STOToken.sol",
  "abi": [
    {
      "anonymous": false,
      "inputs": [
        {
          "indexed": true,
          "internalType": "address",
          "name": "owner",
          "type": "address"
        },
        {
          "indexed": true,
          "internalType": "address",
          "name": "spender",
          "type": "address"
        },
        {
          "indexed": false,
          "internalType": "uint256",
          "name": "value",
          "type": "uint256"
        }
      ],
      "name": "Approval",
      "type": "event"
    },
    {
      "anonymous": false,
      "inputs": [
        {
          "indexed": false,
          "internalType": "address",
          "name": "_address",
          "type": "address"
        }
      ],
      "name": "BlockedByWhitelist",
      "type": "event"
    },
    {
      "anonymous": false,
      "inputs": [
        {
          "indexed": true,
          "internalType": "address",
          "name": "previousOwner",
          "type": "address"
        },
        {
          "indexed": true,
          "internalType": "address",
          "name": "newOwner",
          "type": "address"
        }
      ],
      "name": "OwnershipTransferred",
      "type": "event"
    },
    {
      "anonymous": false,
      "inputs": [
        {
          "indexed": false,
          "internalType": "address",
          "name": "account",
          "type": "address"
        }
      ],
      "name": "Paused",
      "type": "event"
    },
    {
      "anonymous": false,
      "inputs": [
        {
          "indexed": true,
          "internalType": "bytes32",
          "name": "role",
          "type": "bytes32"
        },
        {
          "indexed": true,
          "internalType": "bytes32",
          "name": "previousAdminRole",
          "type": "bytes32"
        },
        {
          "indexed": true,
          "internalType": "bytes32",
          "name": "newAdminRole",
          "type": "bytes32"
        }
      ],
      "name": "RoleAdminChanged",
      "type": "event"
    },
    {
      "anonymous": false,
      "inputs": [
        {
          "indexed": true,
          "internalType": "bytes32",
          "name": "role",
          "type": "bytes32"
        },
        {
          "indexed": true,
          "internalType": "address",
          "name": "account",
          "type": "address"
        },
        {
          "indexed": true,
          "internalType": "address",
          "name": "sender",
          "type": "address"
        }
      ],
      "name": "RoleGranted",
      "type": "event"
    },
    {
      "anonymous": false,
      "inputs": [
        {
          "indexed": true,
          "internalType": "bytes32",
          "name": "role",
          "type": "bytes32"
        },
        {
          "indexed": true,
          "internalType": "address",
          "name": "account",
          "type": "address"
        },
        {
          "indexed": true,
          "internalType": "address",
          "name": "sender",
          "type": "address"
        }
      ],
      "name": "RoleRevoked",
      "type": "event"
    },
    {
      "anonymous": false,
      "inputs": [
        {
          "indexed": true,
          "internalType": "address",
          "name": "from",
          "type": "address"
        },
        {
          "indexed": true,
          "internalType": "address",
          "name": "to",
          "type": "address"
        },
        {
          "indexed": false,
          "internalType": "uint256",
          "name": "tokens",
          "type": "uint256"
        }
      ],
      "name": "SwapTokens",
      "type": "event"
    },
    {
      "anonymous": false,
      "inputs": [
        {
          "indexed": true,
          "internalType": "address",
          "name": "from",
          "type": "address"
        },
        {
          "indexed": true,
          "internalType": "address",
          "name": "to",
          "type": "address"
        },
        {
          "indexed": false,
          "internalType": "uint256",
          "name": "value",
          "type": "uint256"
        }
      ],
      "name": "Transfer",
      "type": "event"
    },
    {
      "anonymous": false,
      "inputs": [
        {
          "indexed": false,
          "internalType": "address",
          "name": "account",
          "type": "address"
        }
      ],
      "name": "Unpaused",
      "type": "event"
    },
    {
      "anonymous": false,
      "inputs": [
        {
          "indexed": false,
          "internalType": "address",
          "name": "_address",
          "type": "address"
        }
      ],
      "name": "UpdatedVault",
      "type": "event"
    },
    {
      "inputs": [],
      "name": "DEFAULT_ADMIN_ROLE",
      "outputs": [
        {
          "internalType": "bytes32",
          "name": "",
          "type": "bytes32"
        }
      ],
      "stateMutability": "view",
      "type": "function"
    },
    {
      "inputs": [],
      "name": "MINTER_ROLE",
      "outputs": [
        {
          "internalType": "bytes32",
          "name": "",
          "type": "bytes32"
        }
      ],
      "stateMutability": "view",
      "type": "function"
    },
    {
      "inputs": [],
      "name": "PAUSER_ROLE",
      "outputs": [
        {
          "internalType": "bytes32",
          "name": "",
          "type": "bytes32"
        }
      ],
      "stateMutability": "view",
      "type": "function"
    },
    {
      "inputs": [
        {
          "internalType": "address",
          "name": "owner",
          "type": "address"
        },
        {
          "internalType": "address",
          "name": "spender",
          "type": "address"
        }
      ],
      "name": "allowance",
      "outputs": [
        {
          "internalType": "uint256",
          "name": "",
          "type": "uint256"
        }
      ],
      "stateMutability": "view",
      "type": "function"
    },
    {
      "inputs": [
        {
          "internalType": "address",
          "name": "spender",
          "type": "address"
        },
        {
          "internalType": "uint256",
          "name": "amount",
          "type": "uint256"
        }
      ],
      "name": "approve",
      "outputs": [
        {
          "internalType": "bool",
          "name": "",
          "type": "bool"
        }
      ],
      "stateMutability": "nonpayable",
      "type": "function"
    },
    {
      "inputs": [
        {
          "internalType": "address",
          "name": "account",
          "type": "address"
        }
      ],
      "name": "balanceOf",
      "outputs": [
        {
          "internalType": "uint256",
          "name": "",
          "type": "uint256"
        }
      ],
      "stateMutability": "view",
      "type": "function"
    },
    {
      "inputs": [],
      "name": "cap",
      "outputs": [
        {
          "internalType": "uint256",
          "name": "",
          "type": "uint256"
        }
      ],
      "stateMutability": "view",
      "type": "function"
    },
    {
      "inputs": [
        {
          "internalType": "uint256",
          "name": "tokens",
          "type": "uint256"
        }
      ],
      "name": "couldReceiveContribution",
      "outputs": [
        {
          "internalType": "bool",
          "name": "",
          "type": "bool"
        }
      ],
      "stateMutability": "view",
      "type": "function"
    },
    {
      "inputs": [],
      "name": "decimals",
      "outputs": [
        {
          "internalType": "uint8",
          "name": "",
          "type": "uint8"
        }
      ],
      "stateMutability": "view",
      "type": "function"
    },
    {
      "inputs": [
        {
          "internalType": "address",
          "name": "spender",
          "type": "address"
        },
        {
          "internalType": "uint256",
          "name": "subtractedValue",
          "type": "uint256"
        }
      ],
      "name": "decreaseAllowance",
      "outputs": [
        {
          "internalType": "bool",
          "name": "",
          "type": "bool"
        }
      ],
      "stateMutability": "nonpayable",
      "type": "function"
    },
    {
      "inputs": [],
      "name": "fullySold",
      "outputs": [
        {
          "internalType": "bool",
          "name": "",
          "type": "bool"
        }
      ],
      "stateMutability": "view",
      "type": "function"
    },
    {
      "inputs": [],
      "name": "getPoolTokens",
      "outputs": [],
      "stateMutability": "nonpayable",
      "type": "function"
    },
    {
      "inputs": [
        {
          "internalType": "uint256",
          "name": "amount",
          "type": "uint256"
        }
      ],
      "name": "getPoolTokensByAmount",
      "outputs": [],
      "stateMutability": "nonpayable",
      "type": "function"
    },
    {
      "inputs": [
        {
          "internalType": "bytes32",
          "name": "role",
          "type": "bytes32"
        }
      ],
      "name": "getRoleAdmin",
      "outputs": [
        {
          "internalType": "bytes32",
          "name": "",
          "type": "bytes32"
        }
      ],
      "stateMutability": "view",
      "type": "function"
    },
    {
      "inputs": [
        {
          "internalType": "bytes32",
          "name": "role",
          "type": "bytes32"
        },
        {
          "internalType": "uint256",
          "name": "index",
          "type": "uint256"
        }
      ],
      "name": "getRoleMember",
      "outputs": [
        {
          "internalType": "address",
          "name": "",
          "type": "address"
        }
      ],
      "stateMutability": "view",
      "type": "function"
    },
    {
      "inputs": [
        {
          "internalType": "bytes32",
          "name": "role",
          "type": "bytes32"
        }
      ],
      "name": "getRoleMemberCount",
      "outputs": [
        {
          "internalType": "uint256",
          "name": "",
          "type": "uint256"
        }
      ],
      "stateMutability": "view",
      "type": "function"
    },
    {
      "inputs": [
        {
          "internalType": "address",
          "name": "minterAddress",
          "type": "address"
        }
      ],
      "name": "grantMinterRole",
      "outputs": [],
      "stateMutability": "nonpayable",
      "type": "function"
    },
    {
      "inputs": [
        {
          "internalType": "address",
          "name": "pauserAddress",
          "type": "address"
        }
      ],
      "name": "grantPauserRole",
      "outputs": [],
      "stateMutability": "nonpayable",
      "type": "function"
    },
    {
      "inputs": [
        {
          "internalType": "bytes32",
          "name": "role",
          "type": "bytes32"
        },
        {
          "internalType": "address",
          "name": "account",
          "type": "address"
        }
      ],
      "name": "grantRole",
      "outputs": [],
      "stateMutability": "nonpayable",
      "type": "function"
    },
    {
      "inputs": [
        {
          "internalType": "bytes32",
          "name": "role",
          "type": "bytes32"
        },
        {
          "internalType": "address",
          "name": "account",
          "type": "address"
        }
      ],
      "name": "hasRole",
      "outputs": [
        {
          "internalType": "bool",
          "name": "",
          "type": "bool"
        }
      ],
      "stateMutability": "view",
      "type": "function"
    },
    {
      "inputs": [
        {
          "internalType": "address",
          "name": "spender",
          "type": "address"
        },
        {
          "internalType": "uint256",
          "name": "addedValue",
          "type": "uint256"
        }
      ],
      "name": "increaseAllowance",
      "outputs": [
        {
          "internalType": "bool",
          "name": "",
          "type": "bool"
        }
      ],
      "stateMutability": "nonpayable",
      "type": "function"
    },
    {
      "inputs": [
        {
          "internalType": "string",
          "name": "name",
          "type": "string"
        },
        {
          "internalType": "string",
          "name": "symbol",
          "type": "string"
        },
        {
          "internalType": "uint256",
          "name": "supply",
          "type": "uint256"
        },
        {
          "internalType": "uint256",
          "name": "minPoolPercent",
          "type": "uint256"
        },
        {
          "internalType": "uint256",
          "name": "maxPoolPercent",
          "type": "uint256"
        }
      ],
      "name": "initialize",
      "outputs": [],
      "stateMutability": "nonpayable",
      "type": "function"
    },
    {
      "inputs": [
        {
          "internalType": "address",
          "name": "to",
          "type": "address"
        },
        {
          "internalType": "uint256",
          "name": "amount",
          "type": "uint256"
        }
      ],
      "name": "mint",
      "outputs": [],
      "stateMutability": "nonpayable",
      "type": "function"
    },
    {
      "inputs": [],
      "name": "name",
      "outputs": [
        {
          "internalType": "string",
          "name": "",
          "type": "string"
        }
      ],
      "stateMutability": "view",
      "type": "function"
    },
    {
      "inputs": [],
      "name": "owner",
      "outputs": [
        {
          "internalType": "address",
          "name": "",
          "type": "address"
        }
      ],
      "stateMutability": "view",
      "type": "function"
    },
    {
      "inputs": [],
      "name": "pause",
      "outputs": [],
      "stateMutability": "nonpayable",
      "type": "function"
    },
    {
      "inputs": [],
      "name": "paused",
      "outputs": [
        {
          "internalType": "bool",
          "name": "",
          "type": "bool"
        }
      ],
      "stateMutability": "view",
      "type": "function"
    },
    {
      "inputs": [],
      "name": "renounceOwnership",
      "outputs": [],
      "stateMutability": "nonpayable",
      "type": "function"
    },
    {
      "inputs": [
        {
          "internalType": "bytes32",
          "name": "role",
          "type": "bytes32"
        },
        {
          "internalType": "address",
          "name": "account",
          "type": "address"
        }
      ],
      "name": "renounceRole",
      "outputs": [],
      "stateMutability": "nonpayable",
      "type": "function"
    },
    {
      "inputs": [
        {
          "internalType": "bytes32",
          "name": "role",
          "type": "bytes32"
        },
        {
          "internalType": "address",
          "name": "account",
          "type": "address"
        }
      ],
      "name": "revokeRole",
      "outputs": [],
      "stateMutability": "nonpayable",
      "type": "function"
    },
    {
      "inputs": [
        {
          "internalType": "address",
          "name": "_from",
          "type": "address"
        },
        {
          "internalType": "address",
          "name": "_to",
          "type": "address"
        }
      ],
      "name": "swapTokens",
      "outputs": [],
      "stateMutability": "nonpayable",
      "type": "function"
    },
    {
      "inputs": [],
      "name": "symbol",
      "outputs": [
        {
          "internalType": "string",
          "name": "",
          "type": "string"
        }
      ],
      "stateMutability": "view",
      "type": "function"
    },
    {
      "inputs": [],
      "name": "totalSupply",
      "outputs": [
        {
          "internalType": "uint256",
          "name": "",
          "type": "uint256"
        }
      ],
      "stateMutability": "view",
      "type": "function"
    },
    {
      "inputs": [
        {
          "internalType": "address",
          "name": "recipient",
          "type": "address"
        },
        {
          "internalType": "uint256",
          "name": "amount",
          "type": "uint256"
        }
      ],
      "name": "transfer",
      "outputs": [
        {
          "internalType": "bool",
          "name": "",
          "type": "bool"
        }
      ],
      "stateMutability": "nonpayable",
      "type": "function"
    },
    {
      "inputs": [
        {
          "internalType": "address",
          "name": "sender",
          "type": "address"
        },
        {
          "internalType": "address",
          "name": "recipient",
          "type": "address"
        },
        {
          "internalType": "uint256",
          "name": "amount",
          "type": "uint256"
        }
      ],
      "name": "transferFrom",
      "outputs": [
        {
          "internalType": "bool",
          "name": "",
          "type": "bool"
        }
      ],
      "stateMutability": "nonpayable",
      "type": "function"
    },
    {
      "inputs": [
        {
          "internalType": "address",
          "name": "newOwner",
          "type": "address"
        }
      ],
      "name": "transferOwnership",
      "outputs": [],
      "stateMutability": "nonpayable",
      "type": "function"
    },
    {
      "inputs": [],
      "name": "unpause",
      "outputs": [],
      "stateMutability": "nonpayable",
      "type": "function"
    },
    {
      "inputs": [
        {
          "internalType": "address",
          "name": "vaultAddress",
          "type": "address"
        }
      ],
      "name": "updateVault",
      "outputs": [],
      "stateMutability": "nonpayable",
      "type": "function"
    }
  ],
  "bytecode": "0x6080604052600060c960146101000a81548160ff02191690831515021790555034801561002b57600080fd5b506149c18061003b6000396000f3fe608060405234801561001057600080fd5b50600436106102325760003560e01c8063715018a611610130578063a457c2d7116100b8578063d547741f1161007c578063d547741f14610be0578063dd62ed3e14610c2e578063e63ab1e914610ca6578063e7563f3f14610cc4578063f2fde38b14610d0857610232565b8063a457c2d714610a74578063a9059cbb14610ad8578063ca15c87314610b3c578063ce5e8e5614610b7e578063d539139314610bc257610232565b80638da5cb5b116100ff5780638da5cb5b146108d95780639010d07c1461090d57806391d148541461096f57806395d89b41146109d3578063a217fddf14610a5657610232565b8063715018a61461074b5780637544e6b3146107555780638456cb59146108c557806389c06568146108cf57610232565b806336568abe116101be57806340c10f191161018257806340c10f19146106215780635c975abb1461066f57806364a2b3a11461068f5780636c11c21c146106af57806370a08231146106f357610232565b806336568abe146104bd578063395093511461050b5780633dd1eb611461056f5780633f3f8c18146105b35780633f4ba83a1461061757610232565b806323b872dd1161020557806323b872dd1461036a578063248a9ca3146103ee5780632f2ff15d14610430578063313ce5671461047e578063355274ea1461049f57610232565b806306fdde0314610237578063095ea7b3146102ba5780631460adc51461031e57806318160ddd1461034c575b600080fd5b61023f610d4c565b6040518080602001828103825283818151815260200191508051906020019080838360005b8381101561027f578082015181840152602081019050610264565b50505050905090810190601f1680156102ac5780820380516001836020036101000a031916815260200191505b509250505060405180910390f35b610306600480360360408110156102d057600080fd5b81019080803573ffffffffffffffffffffffffffffffffffffffff16906020019092919080359060200190929190505050610dee565b60405180821515815260200191505060405180910390f35b61034a6004803603602081101561033457600080fd5b8101908080359060200190929190505050610e0c565b005b610354610f65565b6040518082815260200191505060405180910390f35b6103d66004803603606081101561038057600080fd5b81019080803573ffffffffffffffffffffffffffffffffffffffff169060200190929190803573ffffffffffffffffffffffffffffffffffffffff16906020019092919080359060200190929190505050610f6f565b60405180821515815260200191505060405180910390f35b61041a6004803603602081101561040457600080fd5b8101908080359060200190929190505050611048565b6040518082815260200191505060405180910390f35b61047c6004803603604081101561044657600080fd5b8101908080359060200190929190803573ffffffffffffffffffffffffffffffffffffffff169060200190929190505050611068565b005b6104866110f2565b604051808260ff16815260200191505060405180910390f35b6104a7611109565b6040518082815260200191505060405180910390f35b610509600480360360408110156104d357600080fd5b8101908080359060200190929190803573ffffffffffffffffffffffffffffffffffffffff169060200190929190505050611113565b005b6105576004803603604081101561052157600080fd5b81019080803573ffffffffffffffffffffffffffffffffffffffff169060200190929190803590602001909291905050506111ac565b60405180821515815260200191505060405180910390f35b6105b16004803603602081101561058557600080fd5b81019080803573ffffffffffffffffffffffffffffffffffffffff16906020019092919050505061125f565b005b610615600480360360408110156105c957600080fd5b81019080803573ffffffffffffffffffffffffffffffffffffffff169060200190929190803573ffffffffffffffffffffffffffffffffffffffff16906020019092919050505061133b565b005b61061f6115f6565b005b61066d6004803603604081101561063757600080fd5b81019080803573ffffffffffffffffffffffffffffffffffffffff16906020019092919080359060200190929190505050611686565b005b6106776117f3565b60405180821515815260200191505060405180910390f35b61069761180b565b60405180821515815260200191505060405180910390f35b6106f1600480360360208110156106c557600080fd5b81019080803573ffffffffffffffffffffffffffffffffffffffff169060200190929190505050611873565b005b6107356004803603602081101561070957600080fd5b81019080803573ffffffffffffffffffffffffffffffffffffffff16906020019092919050505061194f565b6040518082815260200191505060405180910390f35b610753611998565b005b6108c3600480360360a081101561076b57600080fd5b810190808035906020019064010000000081111561078857600080fd5b82018360208201111561079a57600080fd5b803590602001918460018302840111640100000000831117156107bc57600080fd5b91908080601f016020809104026020016040519081016040528093929190818152602001838380828437600081840152601f19601f8201169050808301925050505050505091929192908035906020019064010000000081111561081f57600080fd5b82018360208201111561083157600080fd5b8035906020019184600183028401116401000000008311171561085357600080fd5b91908080601f016020809104026020016040519081016040528093929190818152602001838380828437600081840152601f19601f820116905080830192505050505050509192919290803590602001909291908035906020019092919080359060200190929190505050611b08565b005b6108cd611b1c565b005b6108d7611bac565b005b6108e1611c8e565b604051808273ffffffffffffffffffffffffffffffffffffffff16815260200191505060405180910390f35b6109436004803603604081101561092357600080fd5b810190808035906020019092919080359060200190929190505050611cb8565b604051808273ffffffffffffffffffffffffffffffffffffffff16815260200191505060405180910390f35b6109bb6004803603604081101561098557600080fd5b8101908080359060200190929190803573ffffffffffffffffffffffffffffffffffffffff169060200190929190505050611cea565b60405180821515815260200191505060405180910390f35b6109db611d1c565b6040518080602001828103825283818151815260200191508051906020019080838360005b83811015610a1b578082015181840152602081019050610a00565b50505050905090810190601f168015610a485780820380516001836020036101000a031916815260200191505b509250505060405180910390f35b610a5e611dbe565b6040518082815260200191505060405180910390f35b610ac060048036036040811015610a8a57600080fd5b81019080803573ffffffffffffffffffffffffffffffffffffffff16906020019092919080359060200190929190505050611dc5565b60405180821515815260200191505060405180910390f35b610b2460048036036040811015610aee57600080fd5b81019080803573ffffffffffffffffffffffffffffffffffffffff16906020019092919080359060200190929190505050611e92565b60405180821515815260200191505060405180910390f35b610b6860048036036020811015610b5257600080fd5b8101908080359060200190929190505050611eb0565b6040518082815260200191505060405180910390f35b610baa60048036036020811015610b9457600080fd5b8101908080359060200190929190505050611ed7565b60405180821515815260200191505060405180910390f35b610bca611f53565b6040518082815260200191505060405180910390f35b610c2c60048036036040811015610bf657600080fd5b8101908080359060200190929190803573ffffffffffffffffffffffffffffffffffffffff169060200190929190505050611f77565b005b610c9060048036036040811015610c4457600080fd5b81019080803573ffffffffffffffffffffffffffffffffffffffff169060200190929190803573ffffffffffffffffffffffffffffffffffffffff169060200190929190505050612001565b6040518082815260200191505060405180910390f35b610cae612088565b6040518082815260200191505060405180910390f35b610d0660048036036020811015610cda57600080fd5b81019080803573ffffffffffffffffffffffffffffffffffffffff1690602001909291905050506120ac565b005b610d4a60048036036020811015610d1e57600080fd5b81019080803573ffffffffffffffffffffffffffffffffffffffff169060200190929190505050612207565b005b606060688054600181600116156101000203166002900480601f016020809104026020016040519081016040528092919081815260200182805460018160011615610100020316600290048015610de45780601f10610db957610100808354040283529160200191610de4565b820191906000526020600020905b815481529060010190602001808311610dc757829003601f168201915b5050505050905090565b6000610e02610dfb6123fc565b8484612404565b6001905092915050565b610e146123fc565b73ffffffffffffffffffffffffffffffffffffffff16610e32611c8e565b73ffffffffffffffffffffffffffffffffffffffff1614610ebb576040517f08c379a00000000000000000000000000000000000000000000000000000000081526004018080602001828103825260208152602001807f4f776e61626c653a2063616c6c6572206973206e6f7420746865206f776e657281525060200191505060405180910390fd5b80610edd610ec7610f65565b610ecf611109565b6125fb90919063ffffffff16565b1015610f51576040517f08c379a000000000000000000000000000000000000000000000000000000000815260040180806020018281038252601a8152602001807f53544f546f6b656e3a206e6f7420656e6f7567682066756e647300000000000081525060200191505060405180910390fd5b610f62610f5c6123fc565b8261267e565b50565b6000606754905090565b6000610f7c848484612847565b61103d84610f886123fc565b6110388560405180606001604052806028815260200161485160289139606660008b73ffffffffffffffffffffffffffffffffffffffff1673ffffffffffffffffffffffffffffffffffffffff1681526020019081526020016000206000610fee6123fc565b73ffffffffffffffffffffffffffffffffffffffff1673ffffffffffffffffffffffffffffffffffffffff16815260200190815260200160002054612b0c9092919063ffffffff16565b612404565b600190509392505050565b600060336000838152602001908152602001600020600201549050919050565b61108f603360008481526020019081526020016000206002015461108a6123fc565b611cea565b6110e4576040517f08c379a000000000000000000000000000000000000000000000000000000000815260040180806020018281038252602f8152602001806146bb602f913960400191505060405180910390fd5b6110ee8282612bc6565b5050565b6000606a60009054906101000a900460ff16905090565b600060fc54905090565b61111b6123fc565b73ffffffffffffffffffffffffffffffffffffffff168173ffffffffffffffffffffffffffffffffffffffff161461119e576040517f08c379a000000000000000000000000000000000000000000000000000000000815260040180806020018281038252602f815260200180614933602f913960400191505060405180910390fd5b6111a88282612c5a565b5050565b60006112556111b96123fc565b8461125085606660006111ca6123fc565b73ffffffffffffffffffffffffffffffffffffffff1673ffffffffffffffffffffffffffffffffffffffff16815260200190815260200160002060008973ffffffffffffffffffffffffffffffffffffffff1673ffffffffffffffffffffffffffffffffffffffff16815260200190815260200160002054612cee90919063ffffffff16565b612404565b6001905092915050565b6112676123fc565b73ffffffffffffffffffffffffffffffffffffffff16611285611c8e565b73ffffffffffffffffffffffffffffffffffffffff161461130e576040517f08c379a00000000000000000000000000000000000000000000000000000000081526004018080602001828103825260208152602001807f4f776e61626c653a2063616c6c6572206973206e6f7420746865206f776e657281525060200191505060405180910390fd5b6113387f9f2df0fed2c77648de5860a4cc508cd0818c85b8b8a1ab4ceeef8d981c8956a682611068565b50565b6113436123fc565b73ffffffffffffffffffffffffffffffffffffffff16611361611c8e565b73ffffffffffffffffffffffffffffffffffffffff16146113ea576040517f08c379a00000000000000000000000000000000000000000000000000000000081526004018080602001828103825260208152602001807f4f776e61626c653a2063616c6c6572206973206e6f7420746865206f776e657281525060200191505060405180910390fd5b600073ffffffffffffffffffffffffffffffffffffffff168273ffffffffffffffffffffffffffffffffffffffff161415611470576040517f08c379a000000000000000000000000000000000000000000000000000000000815260040180806020018281038252602b815260200180614780602b913960400191505060405180910390fd5b600073ffffffffffffffffffffffffffffffffffffffff168173ffffffffffffffffffffffffffffffffffffffff1614156114f6576040517f08c379a000000000000000000000000000000000000000000000000000000000815260040180806020018281038252602b815260200180614780602b913960400191505060405180910390fd5b60006115018361194f565b11611574576040517f08c379a000000000000000000000000000000000000000000000000000000000815260040180806020018281038252601f8152602001807f53544f546f6b656e3a206e6f20746f6b656e7320746f207472616e736665720081525060200191505060405180910390fd5b600061157f8361194f565b905061158c838383612847565b8173ffffffffffffffffffffffffffffffffffffffff168373ffffffffffffffffffffffffffffffffffffffff167f744e9e5f97188d6d6f986d7c601b03e28c26b77f724d462aa0c1b95c58068b6e836040518082815260200191505060405180910390a3505050565b6116277f65d7a28e3265b37a6474929f336521b332c1681b933f6cb9f3376673440d862a6116226123fc565b611cea565b61167c576040517f08c379a000000000000000000000000000000000000000000000000000000000815260040180806020018281038252602a8152602001806148e4602a913960400191505060405180910390fd5b611684612d76565b565b6116b77f9f2df0fed2c77648de5860a4cc508cd0818c85b8b8a1ab4ceeef8d981c8956a66116b26123fc565b611cea565b61170c576040517f08c379a00000000000000000000000000000000000000000000000000000000081526004018080602001828103825260278152602001806148096027913960400191505060405180910390fd5b61171461180b565b15611787576040517f08c379a000000000000000000000000000000000000000000000000000000000815260040180806020018281038252601a8152602001807f53544f546f6b656e3a20546f6b656e2066756c6c7920736f6c6400000000000081525060200191505060405180910390fd5b61179081611ed7565b6117e5576040517f08c379a00000000000000000000000000000000000000000000000000000000081526004018080602001828103825260228152602001806148796022913960400191505060405180910390fd5b6117ef828261267e565b5050565b600061012e60009054906101000a900460ff16905090565b600080611816611109565b905061185361184460646118366101925485612e6290919063ffffffff16565b612ee890919063ffffffff16565b826125fb90919063ffffffff16565b61185b610f65565b1061186a576001915050611870565b60009150505b90565b61187b6123fc565b73ffffffffffffffffffffffffffffffffffffffff16611899611c8e565b73ffffffffffffffffffffffffffffffffffffffff1614611922576040517f08c379a00000000000000000000000000000000000000000000000000000000081526004018080602001828103825260208152602001807f4f776e61626c653a2063616c6c6572206973206e6f7420746865206f776e657281525060200191505060405180910390fd5b61194c7f65d7a28e3265b37a6474929f336521b332c1681b933f6cb9f3376673440d862a82611068565b50565b6000606560008373ffffffffffffffffffffffffffffffffffffffff1673ffffffffffffffffffffffffffffffffffffffff168152602001908152602001600020549050919050565b6119a06123fc565b73ffffffffffffffffffffffffffffffffffffffff166119be611c8e565b73ffffffffffffffffffffffffffffffffffffffff1614611a47576040517f08c379a00000000000000000000000000000000000000000000000000000000081526004018080602001828103825260208152602001807f4f776e61626c653a2063616c6c6572206973206e6f7420746865206f776e657281525060200191505060405180910390fd5b600073ffffffffffffffffffffffffffffffffffffffff16609760009054906101000a900473ffffffffffffffffffffffffffffffffffffffff1673ffffffffffffffffffffffffffffffffffffffff167f8be0079c531659141344cd1fd0a4f28419497f9722a3daafe3b4186f6b6457e060405160405180910390a36000609760006101000a81548173ffffffffffffffffffffffffffffffffffffffff021916908373ffffffffffffffffffffffffffffffffffffffff160217905550565b611b158585858585612f71565b5050505050565b611b4d7f65d7a28e3265b37a6474929f336521b332c1681b933f6cb9f3376673440d862a611b486123fc565b611cea565b611ba2576040517f08c379a00000000000000000000000000000000000000000000000000000000081526004018080602001828103825260288152602001806147326028913960400191505060405180910390fd5b611baa6130b9565b565b611bb46123fc565b73ffffffffffffffffffffffffffffffffffffffff16611bd2611c8e565b73ffffffffffffffffffffffffffffffffffffffff1614611c5b576040517f08c379a00000000000000000000000000000000000000000000000000000000081526004018080602001828103825260208152602001807f4f776e61626c653a2063616c6c6572206973206e6f7420746865206f776e657281525060200191505060405180910390fd5b611c8c611c666123fc565b611c87611c71610f65565b611c79611109565b6125fb90919063ffffffff16565b61267e565b565b6000609760009054906101000a900473ffffffffffffffffffffffffffffffffffffffff16905090565b6000611ce282603360008681526020019081526020016000206000016131a690919063ffffffff16565b905092915050565b6000611d1482603360008681526020019081526020016000206000016131c090919063ffffffff16565b905092915050565b606060698054600181600116156101000203166002900480601f016020809104026020016040519081016040528092919081815260200182805460018160011615610100020316600290048015611db45780601f10611d8957610100808354040283529160200191611db4565b820191906000526020600020905b815481529060010190602001808311611d9757829003601f168201915b5050505050905090565b6000801b81565b6000611e88611dd26123fc565b84611e838560405180606001604052806025815260200161490e6025913960666000611dfc6123fc565b73ffffffffffffffffffffffffffffffffffffffff1673ffffffffffffffffffffffffffffffffffffffff16815260200190815260200160002060008a73ffffffffffffffffffffffffffffffffffffffff1673ffffffffffffffffffffffffffffffffffffffff16815260200190815260200160002054612b0c9092919063ffffffff16565b612404565b6001905092915050565b6000611ea6611e9f6123fc565b8484612847565b6001905092915050565b6000611ed0603360008481526020019081526020016000206000016131f0565b9050919050565b600080611ee2611109565b9050611efe83611ef0610f65565b612cee90919063ffffffff16565b611f39611f2a6064611f1c6101935486612e6290919063ffffffff16565b612ee890919063ffffffff16565b836125fb90919063ffffffff16565b10611f48576001915050611f4e565b60009150505b919050565b7f9f2df0fed2c77648de5860a4cc508cd0818c85b8b8a1ab4ceeef8d981c8956a681565b611f9e6033600084815260200190815260200160002060020154611f996123fc565b611cea565b611ff3576040517f08c379a00000000000000000000000000000000000000000000000000000000081526004018080602001828103825260308152602001806147ab6030913960400191505060405180910390fd5b611ffd8282612c5a565b5050565b6000606660008473ffffffffffffffffffffffffffffffffffffffff1673ffffffffffffffffffffffffffffffffffffffff16815260200190815260200160002060008373ffffffffffffffffffffffffffffffffffffffff1673ffffffffffffffffffffffffffffffffffffffff16815260200190815260200160002054905092915050565b7f65d7a28e3265b37a6474929f336521b332c1681b933f6cb9f3376673440d862a81565b6120b46123fc565b73ffffffffffffffffffffffffffffffffffffffff166120d2611c8e565b73ffffffffffffffffffffffffffffffffffffffff161461215b576040517f08c379a00000000000000000000000000000000000000000000000000000000081526004018080602001828103825260208152602001807f4f776e61626c653a2063616c6c6572206973206e6f7420746865206f776e657281525060200191505060405180910390fd5b8060c960006101000a81548173ffffffffffffffffffffffffffffffffffffffff021916908373ffffffffffffffffffffffffffffffffffffffff1602179055507f6f558b65df41ac351cf689106e82861fcd8565c6e5826e57870ddfa645c6f36581604051808273ffffffffffffffffffffffffffffffffffffffff16815260200191505060405180910390a1600160c960146101000a81548160ff02191690831515021790555050565b61220f6123fc565b73ffffffffffffffffffffffffffffffffffffffff1661222d611c8e565b73ffffffffffffffffffffffffffffffffffffffff16146122b6576040517f08c379a00000000000000000000000000000000000000000000000000000000081526004018080602001828103825260208152602001807f4f776e61626c653a2063616c6c6572206973206e6f7420746865206f776e657281525060200191505060405180910390fd5b600073ffffffffffffffffffffffffffffffffffffffff168173ffffffffffffffffffffffffffffffffffffffff16141561233c576040517f08c379a00000000000000000000000000000000000000000000000000000000081526004018080602001828103825260268152602001806146ea6026913960400191505060405180910390fd5b8073ffffffffffffffffffffffffffffffffffffffff16609760009054906101000a900473ffffffffffffffffffffffffffffffffffffffff1673ffffffffffffffffffffffffffffffffffffffff167f8be0079c531659141344cd1fd0a4f28419497f9722a3daafe3b4186f6b6457e060405160405180910390a380609760006101000a81548173ffffffffffffffffffffffffffffffffffffffff021916908373ffffffffffffffffffffffffffffffffffffffff16021790555050565b600033905090565b600073ffffffffffffffffffffffffffffffffffffffff168373ffffffffffffffffffffffffffffffffffffffff16141561248a576040517f08c379a00000000000000000000000000000000000000000000000000000000081526004018080602001828103825260248152602001806148c06024913960400191505060405180910390fd5b600073ffffffffffffffffffffffffffffffffffffffff168273ffffffffffffffffffffffffffffffffffffffff161415612510576040517f08c379a00000000000000000000000000000000000000000000000000000000081526004018080602001828103825260228152602001806147106022913960400191505060405180910390fd5b80606660008573ffffffffffffffffffffffffffffffffffffffff1673ffffffffffffffffffffffffffffffffffffffff16815260200190815260200160002060008473ffffffffffffffffffffffffffffffffffffffff1673ffffffffffffffffffffffffffffffffffffffff168152602001908152602001600020819055508173ffffffffffffffffffffffffffffffffffffffff168373ffffffffffffffffffffffffffffffffffffffff167f8c5be1e5ebec7d5bd14f71427d1e84f3dd0314c0f7b2291e5b200ac8c7c3b925836040518082815260200191505060405180910390a3505050565b600082821115612673576040517f08c379a000000000000000000000000000000000000000000000000000000000815260040180806020018281038252601e8152602001807f536166654d6174683a207375627472616374696f6e206f766572666c6f77000081525060200191505060405180910390fd5b818303905092915050565b600073ffffffffffffffffffffffffffffffffffffffff168273ffffffffffffffffffffffffffffffffffffffff161415612721576040517f08c379a000000000000000000000000000000000000000000000000000000000815260040180806020018281038252601f8152602001807f45524332303a206d696e7420746f20746865207a65726f20616464726573730081525060200191505060405180910390fd5b61272d60008383613205565b61274281606754612cee90919063ffffffff16565b60678190555061279a81606560008573ffffffffffffffffffffffffffffffffffffffff1673ffffffffffffffffffffffffffffffffffffffff16815260200190815260200160002054612cee90919063ffffffff16565b606560008473ffffffffffffffffffffffffffffffffffffffff1673ffffffffffffffffffffffffffffffffffffffff168152602001908152602001600020819055508173ffffffffffffffffffffffffffffffffffffffff16600073ffffffffffffffffffffffffffffffffffffffff167fddf252ad1be2c89b69c2b068fc378daa952ba7f163c4a11628f55a4df523b3ef836040518082815260200191505060405180910390a35050565b600073ffffffffffffffffffffffffffffffffffffffff168373ffffffffffffffffffffffffffffffffffffffff1614156128cd576040517f08c379a000000000000000000000000000000000000000000000000000000000815260040180806020018281038252602581526020018061489b6025913960400191505060405180910390fd5b600073ffffffffffffffffffffffffffffffffffffffff168273ffffffffffffffffffffffffffffffffffffffff161415612953576040517f08c379a00000000000000000000000000000000000000000000000000000000081526004018080602001828103825260238152602001806146986023913960400191505060405180910390fd5b61295e838383613205565b6129ca8160405180606001604052806026815260200161475a60269139606560008773ffffffffffffffffffffffffffffffffffffffff1673ffffffffffffffffffffffffffffffffffffffff16815260200190815260200160002054612b0c9092919063ffffffff16565b606560008573ffffffffffffffffffffffffffffffffffffffff1673ffffffffffffffffffffffffffffffffffffffff16815260200190815260200160002081905550612a5f81606560008573ffffffffffffffffffffffffffffffffffffffff1673ffffffffffffffffffffffffffffffffffffffff16815260200190815260200160002054612cee90919063ffffffff16565b606560008473ffffffffffffffffffffffffffffffffffffffff1673ffffffffffffffffffffffffffffffffffffffff168152602001908152602001600020819055508173ffffffffffffffffffffffffffffffffffffffff168373ffffffffffffffffffffffffffffffffffffffff167fddf252ad1be2c89b69c2b068fc378daa952ba7f163c4a11628f55a4df523b3ef836040518082815260200191505060405180910390a3505050565b6000838311158290612bb9576040517f08c379a00000000000000000000000000000000000000000000000000000000081526004018080602001828103825283818151815260200191508051906020019080838360005b83811015612b7e578082015181840152602081019050612b63565b50505050905090810190601f168015612bab5780820380516001836020036101000a031916815260200191505b509250505060405180910390fd5b5082840390509392505050565b612bee816033600085815260200190815260200160002060000161321590919063ffffffff16565b15612c5657612bfb6123fc565b73ffffffffffffffffffffffffffffffffffffffff168173ffffffffffffffffffffffffffffffffffffffff16837f2f8788117e7eff1d82e926ec794901d17c78024a50270940304540a733656f0d60405160405180910390a45b5050565b612c82816033600085815260200190815260200160002060000161324590919063ffffffff16565b15612cea57612c8f6123fc565b73ffffffffffffffffffffffffffffffffffffffff168173ffffffffffffffffffffffffffffffffffffffff16837ff6391f5c32d9c69d2a47ea670b442974b53935d1edc7fd64eb21e047a839171b60405160405180910390a45b5050565b600080828401905083811015612d6c576040517f08c379a000000000000000000000000000000000000000000000000000000000815260040180806020018281038252601b8152602001807f536166654d6174683a206164646974696f6e206f766572666c6f77000000000081525060200191505060405180910390fd5b8091505092915050565b612d7e6117f3565b612df0576040517f08c379a00000000000000000000000000000000000000000000000000000000081526004018080602001828103825260148152602001807f5061757361626c653a206e6f742070617573656400000000000000000000000081525060200191505060405180910390fd5b600061012e60006101000a81548160ff0219169083151502179055507f5db9ee0a495bf2e6ff9c91a7834c1ba4fdd244a5e8aa4e537bd38aeae4b073aa612e356123fc565b604051808273ffffffffffffffffffffffffffffffffffffffff16815260200191505060405180910390a1565b600080831415612e755760009050612ee2565b6000828402905082848281612e8657fe5b0414612edd576040517f08c379a00000000000000000000000000000000000000000000000000000000081526004018080602001828103825260218152602001806148306021913960400191505060405180910390fd5b809150505b92915050565b6000808211612f5f576040517f08c379a000000000000000000000000000000000000000000000000000000000815260040180806020018281038252601a8152602001807f536166654d6174683a206469766973696f6e206279207a65726f00000000000081525060200191505060405180910390fd5b818381612f6857fe5b04905092915050565b600060019054906101000a900460ff1680612f905750612f8f613275565b5b80612fa6575060008054906101000a900460ff16155b612ffb576040517f08c379a000000000000000000000000000000000000000000000000000000000815260040180806020018281038252602e8152602001806147db602e913960400191505060405180910390fd5b60008060019054906101000a900460ff16159050801561304b576001600060016101000a81548160ff02191690831515021790555060016000806101000a81548160ff0219169083151502179055505b613053613286565b61305b613384565b6130658686613482565b61306d6135cc565b613076846136da565b61307e6137ea565b613086613904565b6130908383613a02565b80156130b15760008060016101000a81548160ff0219169083151502179055505b505050505050565b6130c16117f3565b15613134576040517f08c379a00000000000000000000000000000000000000000000000000000000081526004018080602001828103825260108152602001807f5061757361626c653a207061757365640000000000000000000000000000000081525060200191505060405180910390fd5b600161012e60006101000a81548160ff0219169083151502179055507f62e78cea01bee320cd4e420270b5ea74000d11b0c9f74754ebdbfc544b05a2586131796123fc565b604051808273ffffffffffffffffffffffffffffffffffffffff16815260200191505060405180910390a1565b60006131b58360000183613b88565b60001c905092915050565b60006131e8836000018373ffffffffffffffffffffffffffffffffffffffff1660001b613c0b565b905092915050565b60006131fe82600001613c2e565b9050919050565b613210838383613c3f565b505050565b600061323d836000018373ffffffffffffffffffffffffffffffffffffffff1660001b613cad565b905092915050565b600061326d836000018373ffffffffffffffffffffffffffffffffffffffff1660001b613d1d565b905092915050565b600061328030613e05565b15905090565b600060019054906101000a900460ff16806132a557506132a4613275565b5b806132bb575060008054906101000a900460ff16155b613310576040517f08c379a000000000000000000000000000000000000000000000000000000000815260040180806020018281038252602e8152602001806147db602e913960400191505060405180910390fd5b60008060019054906101000a900460ff161590508015613360576001600060016101000a81548160ff02191690831515021790555060016000806101000a81548160ff0219169083151502179055505b80156133815760008060016101000a81548160ff0219169083151502179055505b50565b600060019054906101000a900460ff16806133a357506133a2613275565b5b806133b9575060008054906101000a900460ff16155b61340e576040517f08c379a000000000000000000000000000000000000000000000000000000000815260040180806020018281038252602e8152602001806147db602e913960400191505060405180910390fd5b60008060019054906101000a900460ff16159050801561345e576001600060016101000a81548160ff02191690831515021790555060016000806101000a81548160ff0219169083151502179055505b801561347f5760008060016101000a81548160ff0219169083151502179055505b50565b600060019054906101000a900460ff16806134a157506134a0613275565b5b806134b7575060008054906101000a900460ff16155b61350c576040517f08c379a000000000000000000000000000000000000000000000000000000000815260040180806020018281038252602e8152602001806147db602e913960400191505060405180910390fd5b60008060019054906101000a900460ff16159050801561355c576001600060016101000a81548160ff02191690831515021790555060016000806101000a81548160ff0219169083151502179055505b82606890805190602001906135729291906145d8565b5081606990805190602001906135899291906145d8565b506012606a60006101000a81548160ff021916908360ff16021790555080156135c75760008060016101000a81548160ff0219169083151502179055505b505050565b600060019054906101000a900460ff16806135eb57506135ea613275565b5b80613601575060008054906101000a900460ff16155b613656576040517f08c379a000000000000000000000000000000000000000000000000000000000815260040180806020018281038252602e8152602001806147db602e913960400191505060405180910390fd5b60008060019054906101000a900460ff1615905080156136a6576001600060016101000a81548160ff02191690831515021790555060016000806101000a81548160ff0219169083151502179055505b6136ae613286565b6136b6613e18565b80156136d75760008060016101000a81548160ff0219169083151502179055505b50565b600060019054906101000a900460ff16806136f957506136f8613275565b5b8061370f575060008054906101000a900460ff16155b613764576040517f08c379a000000000000000000000000000000000000000000000000000000000815260040180806020018281038252602e8152602001806147db602e913960400191505060405180910390fd5b60008060019054906101000a900460ff1615905080156137b4576001600060016101000a81548160ff02191690831515021790555060016000806101000a81548160ff0219169083151502179055505b6137bc613286565b6137c582613f26565b80156137e65760008060016101000a81548160ff0219169083151502179055505b5050565b600060019054906101000a900460ff16806138095750613808613275565b5b8061381f575060008054906101000a900460ff16155b613874576040517f08c379a000000000000000000000000000000000000000000000000000000000815260040180806020018281038252602e8152602001806147db602e913960400191505060405180910390fd5b60008060019054906101000a900460ff1615905080156138c4576001600060016101000a81548160ff02191690831515021790555060016000806101000a81548160ff0219169083151502179055505b600061012e60006101000a81548160ff02191690831515021790555080156139015760008060016101000a81548160ff0219169083151502179055505b50565b600060019054906101000a900460ff16806139235750613922613275565b5b80613939575060008054906101000a900460ff16155b61398e576040517f08c379a000000000000000000000000000000000000000000000000000000000815260040180806020018281038252602e8152602001806147db602e913960400191505060405180910390fd5b60008060019054906101000a900460ff1615905080156139de576001600060016101000a81548160ff02191690831515021790555060016000806101000a81548160ff0219169083151502179055505b80156139ff5760008060016101000a81548160ff0219169083151502179055505b50565b600060019054906101000a900460ff1680613a215750613a20613275565b5b80613a37575060008054906101000a900460ff16155b613a8c576040517f08c379a000000000000000000000000000000000000000000000000000000000815260040180806020018281038252602e8152602001806147db602e913960400191505060405180910390fd5b60008060019054906101000a900460ff161590508015613adc576001600060016101000a81548160ff02191690831515021790555060016000806101000a81548160ff0219169083151502179055505b613af06000801b613aeb6123fc565b6140a2565b613b217f9f2df0fed2c77648de5860a4cc508cd0818c85b8b8a1ab4ceeef8d981c8956a6613b1c6123fc565b6140a2565b613b527f65d7a28e3265b37a6474929f336521b332c1681b933f6cb9f3376673440d862a613b4d6123fc565b6140a2565b826101938190555081610192819055508015613b835760008060016101000a81548160ff0219169083151502179055505b505050565b600081836000018054905011613be9576040517f08c379a00000000000000000000000000000000000000000000000000000000081526004018080602001828103825260228152602001806146766022913960400191505060405180910390fd5b826000018281548110613bf857fe5b9060005260206000200154905092915050565b600080836001016000848152602001908152602001600020541415905092915050565b600081600001805490509050919050565b613c4a8383836140b0565b613c526117f3565b15613ca8576040517f08c379a000000000000000000000000000000000000000000000000000000000815260040180806020018281038252602a815260200180614962602a913960400191505060405180910390fd5b505050565b6000613cb98383613c0b565b613d12578260000182908060018154018082558091505060019003906000526020600020016000909190919091505582600001805490508360010160008481526020019081526020016000208190555060019050613d17565b600090505b92915050565b60008083600101600084815260200190815260200160002054905060008114613df95760006001820390506000600186600001805490500390506000866000018281548110613d6857fe5b9060005260206000200154905080876000018481548110613d8557fe5b9060005260206000200181905550600183018760010160008381526020019081526020016000208190555086600001805480613dbd57fe5b60019003818190600052602060002001600090559055866001016000878152602001908152602001600020600090556001945050505050613dff565b60009150505b92915050565b600080823b905060008111915050919050565b600060019054906101000a900460ff1680613e375750613e36613275565b5b80613e4d575060008054906101000a900460ff16155b613ea2576040517f08c379a000000000000000000000000000000000000000000000000000000000815260040180806020018281038252602e8152602001806147db602e913960400191505060405180910390fd5b60008060019054906101000a900460ff161590508015613ef2576001600060016101000a81548160ff02191690831515021790555060016000806101000a81548160ff0219169083151502179055505b613efa613286565b613f0261418c565b8015613f235760008060016101000a81548160ff0219169083151502179055505b50565b600060019054906101000a900460ff1680613f455750613f44613275565b5b80613f5b575060008054906101000a900460ff16155b613fb0576040517f08c379a000000000000000000000000000000000000000000000000000000000815260040180806020018281038252602e8152602001806147db602e913960400191505060405180910390fd5b60008060019054906101000a900460ff161590508015614000576001600060016101000a81548160ff02191690831515021790555060016000806101000a81548160ff0219169083151502179055505b60008211614076576040517f08c379a00000000000000000000000000000000000000000000000000000000081526004018080602001828103825260158152602001807f45524332304361707065643a206361702069732030000000000000000000000081525060200191505060405180910390fd5b8160fc81905550801561409e5760008060016101000a81548160ff0219169083151502179055505b5050565b6140ac8282612bc6565b5050565b6140bb838383614333565b600073ffffffffffffffffffffffffffffffffffffffff168373ffffffffffffffffffffffffffffffffffffffff161415614187576140f8611109565b61411282614104610f65565b612cee90919063ffffffff16565b1115614186576040517f08c379a00000000000000000000000000000000000000000000000000000000081526004018080602001828103825260198152602001807f45524332304361707065643a206361702065786365656465640000000000000081525060200191505060405180910390fd5b5b505050565b600060019054906101000a900460ff16806141ab57506141aa613275565b5b806141c1575060008054906101000a900460ff16155b614216576040517f08c379a000000000000000000000000000000000000000000000000000000000815260040180806020018281038252602e8152602001806147db602e913960400191505060405180910390fd5b60008060019054906101000a900460ff161590508015614266576001600060016101000a81548160ff02191690831515021790555060016000806101000a81548160ff0219169083151502179055505b60006142706123fc565b905080609760006101000a81548173ffffffffffffffffffffffffffffffffffffffff021916908373ffffffffffffffffffffffffffffffffffffffff1602179055508073ffffffffffffffffffffffffffffffffffffffff16600073ffffffffffffffffffffffffffffffffffffffff167f8be0079c531659141344cd1fd0a4f28419497f9722a3daafe3b4186f6b6457e060405160405180910390a35080156143305760008060016101000a81548160ff0219169083151502179055505b50565b61433e83838361440c565b60c960149054906101000a900460ff166143c0576040517f08c379a00000000000000000000000000000000000000000000000000000000081526004018080602001828103825260198152602001807f57686974656c6973745661756c74204e4f54206c696e6b65640000000000000081525060200191505060405180910390fd5b600073ffffffffffffffffffffffffffffffffffffffff168373ffffffffffffffffffffffffffffffffffffffff16146143fe576143fd83614411565b5b61440782614411565b505050565b505050565b614419611c8e565b73ffffffffffffffffffffffffffffffffffffffff168173ffffffffffffffffffffffffffffffffffffffff1614158015614515575060c960009054906101000a900473ffffffffffffffffffffffffffffffffffffffff1673ffffffffffffffffffffffffffffffffffffffff16633af32abf826040518263ffffffff1660e01b8152600401808273ffffffffffffffffffffffffffffffffffffffff16815260200191505060206040518083038186803b1580156144d857600080fd5b505afa1580156144ec573d6000803e3d6000fd5b505050506040513d602081101561450257600080fd5b8101908080519060200190929190505050155b156145d5577f5dc23f116b6f41a3adab9931cae080ea3fb0b1b9d3f27b0571e39e1642f637a281604051808273ffffffffffffffffffffffffffffffffffffffff16815260200191505060405180910390a16040517f08c379a00000000000000000000000000000000000000000000000000000000081526004018080602001828103825260178152602001807f41646472657373204e4f542077686974656c697374656400000000000000000081525060200191505060405180910390fd5b50565b828054600181600116156101000203166002900490600052602060002090601f016020900481019282601f1061461957805160ff1916838001178555614647565b82800160010185558215614647579182015b8281111561464657825182559160200191906001019061462b565b5b5090506146549190614658565b5090565b5b80821115614671576000816000905550600101614659565b509056fe456e756d657261626c655365743a20696e646578206f7574206f6620626f756e647345524332303a207472616e7366657220746f20746865207a65726f2061646472657373416363657373436f6e74726f6c3a2073656e646572206d75737420626520616e2061646d696e20746f206772616e744f776e61626c653a206e6577206f776e657220697320746865207a65726f206164647265737345524332303a20617070726f766520746f20746865207a65726f206164647265737353544f546f6b656e3a206d75737420686176652070617573657220726f6c6520746f20706175736545524332303a207472616e7366657220616d6f756e7420657863656564732062616c616e636553544f546f6b656e3a205f66726f6d206164647265737320697320746865207a65726f2061646472657373416363657373436f6e74726f6c3a2073656e646572206d75737420626520616e2061646d696e20746f207265766f6b65496e697469616c697a61626c653a20636f6e747261637420697320616c726561647920696e697469616c697a656453544f546f6b656e3a206d7573742068617665206d696e74657220726f6c6520746f206d696e74536166654d6174683a206d756c7469706c69636174696f6e206f766572666c6f7745524332303a207472616e7366657220616d6f756e74206578636565647320616c6c6f77616e636553544f546f6b656e3a20746f6b656e7320726573657276656420666f7220706f6f6c45524332303a207472616e736665722066726f6d20746865207a65726f206164647265737345524332303a20617070726f76652066726f6d20746865207a65726f206164647265737353544f546f6b656e3a206d75737420686176652070617573657220726f6c6520746f20756e706175736545524332303a2064656372656173656420616c6c6f77616e63652062656c6f77207a65726f416363657373436f6e74726f6c3a2063616e206f6e6c792072656e6f756e636520726f6c657320666f722073656c6645524332305061757361626c653a20746f6b656e207472616e73666572207768696c6520706175736564a2646970667358221220008e99e6fc71ce8b7d062ae0ee5a860c2dcf5f89e5ae90e80749fc8dd58f08e464736f6c634300060c0033",
  "compiler": {
    "name": "solc",
    "version": "0.6.12+commit.27d51765.Emscripten.clang",
    "optimizer": {
      "enabled": false,
      "runs": 200
    },
    "evmVersion": "petersburg"
  }
}