{
  "fileName": "WhitelistVault.sol",
  "contractName": "WhitelistVault",
  "source": "// SPDX-License-Identifier: Unlicense\npragma solidity >=0.6.0 <0.8.0;\n\nimport \"@openzeppelin/contracts-upgradeable/access/OwnableUpgradeable.sol\";\n\ncontract WhitelistVault is OwnableUpgradeable {\n\n    bool public freewayMode = false;\n\n    mapping(address => bool) private _allowed;\n\n    event AddedToWhiteList(address _address);\n    event RemoveFromWhiteList(address _address);\n\n    function initialize() public {\n        __Ownable_init();\n    }\n\n    function addToWhitelist(address[] memory whitelisted) public onlyOwner {\n      for (uint c = 0; c < whitelisted.length; c++ )\n        _addToWhitelist(whitelisted[c]);\n    }\n\n    function _addToWhitelist(address whitelisted) private {\n        require(whitelisted != address(0), \"WhitelistVault: whitelisted is the zero address\");\n        _allowed[whitelisted] = true;\n        emit AddedToWhiteList(whitelisted);\n    }\n\n    function removeFromWhitelist(address[] memory blacklisted) public onlyOwner {\n      for (uint c = 0; c < blacklisted.length; c++ )\n        _removeFromWhitelist(blacklisted[c]);\n    }\n\n    function _removeFromWhitelist(address blacklisted) private {\n        require(blacklisted != address(0), \"WhitelistVault: blacklisted is the zero address\");\n        if (_allowed[blacklisted]){\n          _allowed[blacklisted] = false;\n          emit RemoveFromWhiteList(blacklisted);\n        }\n    }\n\n    function setFreewayMode(bool mode) public onlyOwner {\n      freewayMode = mode;\n    }\n\n    function isWhitelisted(address _address) public view returns (bool) {\n      if (freewayMode) {\n        return true;\n      }\n      return _allowed[_address] == true;\n    }\n}\n",
  "sourcePath": "contracts/WhitelistVault.sol",
  "abi": [
    {
      "anonymous": false,
      "inputs": [
        {
          "indexed": false,
          "internalType": "address",
          "name": "_address",
          "type": "address"
        }
      ],
      "name": "AddedToWhiteList",
      "type": "event"
    },
    {
      "anonymous": false,
      "inputs": [
        {
          "indexed": true,
          "internalType": "address",
          "name": "previousOwner",
          "type": "address"
        },
        {
          "indexed": true,
          "internalType": "address",
          "name": "newOwner",
          "type": "address"
        }
      ],
      "name": "OwnershipTransferred",
      "type": "event"
    },
    {
      "anonymous": false,
      "inputs": [
        {
          "indexed": false,
          "internalType": "address",
          "name": "_address",
          "type": "address"
        }
      ],
      "name": "RemoveFromWhiteList",
      "type": "event"
    },
    {
      "inputs": [
        {
          "internalType": "address[]",
          "name": "whitelisted",
          "type": "address[]"
        }
      ],
      "name": "addToWhitelist",
      "outputs": [],
      "stateMutability": "nonpayable",
      "type": "function"
    },
    {
      "inputs": [],
      "name": "freewayMode",
      "outputs": [
        {
          "internalType": "bool",
          "name": "",
          "type": "bool"
        }
      ],
      "stateMutability": "view",
      "type": "function"
    },
    {
      "inputs": [],
      "name": "initialize",
      "outputs": [],
      "stateMutability": "nonpayable",
      "type": "function"
    },
    {
      "inputs": [
        {
          "internalType": "address",
          "name": "_address",
          "type": "address"
        }
      ],
      "name": "isWhitelisted",
      "outputs": [
        {
          "internalType": "bool",
          "name": "",
          "type": "bool"
        }
      ],
      "stateMutability": "view",
      "type": "function"
    },
    {
      "inputs": [],
      "name": "owner",
      "outputs": [
        {
          "internalType": "address",
          "name": "",
          "type": "address"
        }
      ],
      "stateMutability": "view",
      "type": "function"
    },
    {
      "inputs": [
        {
          "internalType": "address[]",
          "name": "blacklisted",
          "type": "address[]"
        }
      ],
      "name": "removeFromWhitelist",
      "outputs": [],
      "stateMutability": "nonpayable",
      "type": "function"
    },
    {
      "inputs": [],
      "name": "renounceOwnership",
      "outputs": [],
      "stateMutability": "nonpayable",
      "type": "function"
    },
    {
      "inputs": [
        {
          "internalType": "bool",
          "name": "mode",
          "type": "bool"
        }
      ],
      "name": "setFreewayMode",
      "outputs": [],
      "stateMutability": "nonpayable",
      "type": "function"
    },
    {
      "inputs": [
        {
          "internalType": "address",
          "name": "newOwner",
          "type": "address"
        }
      ],
      "name": "transferOwnership",
      "outputs": [],
      "stateMutability": "nonpayable",
      "type": "function"
    }
  ],
  "bytecode": "0x60806040526000606560006101000a81548160ff02191690831515021790555034801561002b57600080fd5b506111788061003b6000396000f3fe608060405234801561001057600080fd5b50600436106100935760003560e01c80638129fc1c116100665780638129fc1c1461026c5780638da5cb5b14610276578063c43876e3146102aa578063cd503857146102da578063f2fde38b146102fa57610093565b80633af32abf14610098578063548db174146100f2578063715018a6146101aa5780637f649783146101b4575b600080fd5b6100da600480360360208110156100ae57600080fd5b81019080803573ffffffffffffffffffffffffffffffffffffffff16906020019092919050505061033e565b60405180821515815260200191505060405180910390f35b6101a86004803603602081101561010857600080fd5b810190808035906020019064010000000081111561012557600080fd5b82018360208201111561013757600080fd5b8035906020019184602083028401116401000000008311171561015957600080fd5b919080806020026020016040519081016040528093929190818152602001838360200280828437600081840152601f19601f8201169050808301925050505050505091929192905050506103ba565b005b6101b26104a2565b005b61026a600480360360208110156101ca57600080fd5b81019080803590602001906401000000008111156101e757600080fd5b8201836020820111156101f957600080fd5b8035906020019184602083028401116401000000008311171561021b57600080fd5b919080806020026020016040519081016040528093929190818152602001838360200280828437600081840152601f19601f820116905080830192505050505050509192919290505050610612565b005b6102746106fa565b005b61027e610704565b604051808273ffffffffffffffffffffffffffffffffffffffff16815260200191505060405180910390f35b6102d8600480360360208110156102c057600080fd5b8101908080351515906020019092919050505061072e565b005b6102e26107fa565b60405180821515815260200191505060405180910390f35b61033c6004803603602081101561031057600080fd5b81019080803573ffffffffffffffffffffffffffffffffffffffff16906020019092919050505061080d565b005b6000606560009054906101000a900460ff161561035e57600190506103b5565b60011515606660008473ffffffffffffffffffffffffffffffffffffffff1673ffffffffffffffffffffffffffffffffffffffff16815260200190815260200160002060009054906101000a900460ff1615151490505b919050565b6103c2610a02565b73ffffffffffffffffffffffffffffffffffffffff166103e0610704565b73ffffffffffffffffffffffffffffffffffffffff1614610469576040517f08c379a00000000000000000000000000000000000000000000000000000000081526004018080602001828103825260208152602001807f4f776e61626c653a2063616c6c6572206973206e6f7420746865206f776e657281525060200191505060405180910390fd5b60005b815181101561049e5761049182828151811061048457fe5b6020026020010151610a0a565b808060010191505061046c565b5050565b6104aa610a02565b73ffffffffffffffffffffffffffffffffffffffff166104c8610704565b73ffffffffffffffffffffffffffffffffffffffff1614610551576040517f08c379a00000000000000000000000000000000000000000000000000000000081526004018080602001828103825260208152602001807f4f776e61626c653a2063616c6c6572206973206e6f7420746865206f776e657281525060200191505060405180910390fd5b600073ffffffffffffffffffffffffffffffffffffffff16603360009054906101000a900473ffffffffffffffffffffffffffffffffffffffff1673ffffffffffffffffffffffffffffffffffffffff167f8be0079c531659141344cd1fd0a4f28419497f9722a3daafe3b4186f6b6457e060405160405180910390a36000603360006101000a81548173ffffffffffffffffffffffffffffffffffffffff021916908373ffffffffffffffffffffffffffffffffffffffff160217905550565b61061a610a02565b73ffffffffffffffffffffffffffffffffffffffff16610638610704565b73ffffffffffffffffffffffffffffffffffffffff16146106c1576040517f08c379a00000000000000000000000000000000000000000000000000000000081526004018080602001828103825260208152602001807f4f776e61626c653a2063616c6c6572206973206e6f7420746865206f776e657281525060200191505060405180910390fd5b60005b81518110156106f6576106e98282815181106106dc57fe5b6020026020010151610b8b565b80806001019150506106c4565b5050565b610702610cb9565b565b6000603360009054906101000a900473ffffffffffffffffffffffffffffffffffffffff16905090565b610736610a02565b73ffffffffffffffffffffffffffffffffffffffff16610754610704565b73ffffffffffffffffffffffffffffffffffffffff16146107dd576040517f08c379a00000000000000000000000000000000000000000000000000000000081526004018080602001828103825260208152602001807f4f776e61626c653a2063616c6c6572206973206e6f7420746865206f776e657281525060200191505060405180910390fd5b80606560006101000a81548160ff02191690831515021790555050565b606560009054906101000a900460ff1681565b610815610a02565b73ffffffffffffffffffffffffffffffffffffffff16610833610704565b73ffffffffffffffffffffffffffffffffffffffff16146108bc576040517f08c379a00000000000000000000000000000000000000000000000000000000081526004018080602001828103825260208152602001807f4f776e61626c653a2063616c6c6572206973206e6f7420746865206f776e657281525060200191505060405180910390fd5b600073ffffffffffffffffffffffffffffffffffffffff168173ffffffffffffffffffffffffffffffffffffffff161415610942576040517f08c379a00000000000000000000000000000000000000000000000000000000081526004018080602001828103825260268152602001806110916026913960400191505060405180910390fd5b8073ffffffffffffffffffffffffffffffffffffffff16603360009054906101000a900473ffffffffffffffffffffffffffffffffffffffff1673ffffffffffffffffffffffffffffffffffffffff167f8be0079c531659141344cd1fd0a4f28419497f9722a3daafe3b4186f6b6457e060405160405180910390a380603360006101000a81548173ffffffffffffffffffffffffffffffffffffffff021916908373ffffffffffffffffffffffffffffffffffffffff16021790555050565b600033905090565b600073ffffffffffffffffffffffffffffffffffffffff168173ffffffffffffffffffffffffffffffffffffffff161415610a90576040517f08c379a000000000000000000000000000000000000000000000000000000000815260040180806020018281038252602f815260200180611114602f913960400191505060405180910390fd5b606660008273ffffffffffffffffffffffffffffffffffffffff1673ffffffffffffffffffffffffffffffffffffffff16815260200190815260200160002060009054906101000a900460ff1615610b88576000606660008373ffffffffffffffffffffffffffffffffffffffff1673ffffffffffffffffffffffffffffffffffffffff16815260200190815260200160002060006101000a81548160ff0219169083151502179055507f80f4d7be9d601c8487132194fd218772956b9b20b704060810edd362c193220c81604051808273ffffffffffffffffffffffffffffffffffffffff16815260200191505060405180910390a15b50565b600073ffffffffffffffffffffffffffffffffffffffff168173ffffffffffffffffffffffffffffffffffffffff161415610c11576040517f08c379a000000000000000000000000000000000000000000000000000000000815260040180806020018281038252602f8152602001806110b7602f913960400191505060405180910390fd5b6001606660008373ffffffffffffffffffffffffffffffffffffffff1673ffffffffffffffffffffffffffffffffffffffff16815260200190815260200160002060006101000a81548160ff0219169083151502179055507f8a3be376fdc726be3f3cee8e59ba5698a268a9b59f69cdabcf06d2ec2c90658f81604051808273ffffffffffffffffffffffffffffffffffffffff16815260200191505060405180910390a150565b600060019054906101000a900460ff1680610cd85750610cd7610dc7565b5b80610cee575060008054906101000a900460ff16155b610d43576040517f08c379a000000000000000000000000000000000000000000000000000000000815260040180806020018281038252602e8152602001806110e6602e913960400191505060405180910390fd5b60008060019054906101000a900460ff161590508015610d93576001600060016101000a81548160ff02191690831515021790555060016000806101000a81548160ff0219169083151502179055505b610d9b610dd8565b610da3610ed6565b8015610dc45760008060016101000a81548160ff0219169083151502179055505b50565b6000610dd23061107d565b15905090565b600060019054906101000a900460ff1680610df75750610df6610dc7565b5b80610e0d575060008054906101000a900460ff16155b610e62576040517f08c379a000000000000000000000000000000000000000000000000000000000815260040180806020018281038252602e8152602001806110e6602e913960400191505060405180910390fd5b60008060019054906101000a900460ff161590508015610eb2576001600060016101000a81548160ff02191690831515021790555060016000806101000a81548160ff0219169083151502179055505b8015610ed35760008060016101000a81548160ff0219169083151502179055505b50565b600060019054906101000a900460ff1680610ef55750610ef4610dc7565b5b80610f0b575060008054906101000a900460ff16155b610f60576040517f08c379a000000000000000000000000000000000000000000000000000000000815260040180806020018281038252602e8152602001806110e6602e913960400191505060405180910390fd5b60008060019054906101000a900460ff161590508015610fb0576001600060016101000a81548160ff02191690831515021790555060016000806101000a81548160ff0219169083151502179055505b6000610fba610a02565b905080603360006101000a81548173ffffffffffffffffffffffffffffffffffffffff021916908373ffffffffffffffffffffffffffffffffffffffff1602179055508073ffffffffffffffffffffffffffffffffffffffff16600073ffffffffffffffffffffffffffffffffffffffff167f8be0079c531659141344cd1fd0a4f28419497f9722a3daafe3b4186f6b6457e060405160405180910390a350801561107a5760008060016101000a81548160ff0219169083151502179055505b50565b600080823b90506000811191505091905056fe4f776e61626c653a206e6577206f776e657220697320746865207a65726f206164647265737357686974656c6973745661756c743a2077686974656c697374656420697320746865207a65726f2061646472657373496e697469616c697a61626c653a20636f6e747261637420697320616c726561647920696e697469616c697a656457686974656c6973745661756c743a20626c61636b6c697374656420697320746865207a65726f2061646472657373a2646970667358221220a3f24eaf27aa5c5a2305f9fdd26d70645d72cec65e088c29a9e60f45b7372c4c64736f6c634300060c0033",
  "compiler": {
    "name": "solc",
    "version": "0.6.12+commit.27d51765.Emscripten.clang",
    "optimizer": {
      "enabled": false,
      "runs": 200
    },
    "evmVersion": "petersburg"
  }
}